{
  "_format": "hh-sol-artifact-1",
  "contractName": "MyEpicGame",
  "sourceName": "contracts/MyEpicGame.sol",
  "abi": [
    {
      "inputs": [
        {
          "internalType": "string[]",
          "name": "characterNames",
          "type": "string[]"
        },
        {
          "internalType": "string[]",
          "name": "characterImageURIs",
          "type": "string[]"
        },
        {
          "internalType": "uint256[]",
          "name": "characterHp",
          "type": "uint256[]"
        },
        {
          "internalType": "uint256[]",
          "name": "characterAttackDmg",
          "type": "uint256[]"
        },
        {
          "internalType": "string",
          "name": "bossName",
          "type": "string"
        },
        {
          "internalType": "string",
          "name": "bossImageURI",
          "type": "string"
        },
        {
          "internalType": "uint256",
          "name": "bossHp",
          "type": "uint256"
        },
        {
          "internalType": "uint256",
          "name": "bossAttackDamage",
          "type": "uint256"
        }
      ],
      "stateMutability": "nonpayable",
      "type": "constructor"
    },
    {
      "anonymous": false,
      "inputs": [
        {
          "indexed": true,
          "internalType": "address",
          "name": "owner",
          "type": "address"
        },
        {
          "indexed": true,
          "internalType": "address",
          "name": "approved",
          "type": "address"
        },
        {
          "indexed": true,
          "internalType": "uint256",
          "name": "tokenId",
          "type": "uint256"
        }
      ],
      "name": "Approval",
      "type": "event"
    },
    {
      "anonymous": false,
      "inputs": [
        {
          "indexed": true,
          "internalType": "address",
          "name": "owner",
          "type": "address"
        },
        {
          "indexed": true,
          "internalType": "address",
          "name": "operator",
          "type": "address"
        },
        {
          "indexed": false,
          "internalType": "bool",
          "name": "approved",
          "type": "bool"
        }
      ],
      "name": "ApprovalForAll",
      "type": "event"
    },
    {
      "anonymous": false,
      "inputs": [
        {
          "indexed": false,
          "internalType": "uint256",
          "name": "newBossHp",
          "type": "uint256"
        },
        {
          "indexed": false,
          "internalType": "uint256",
          "name": "newPlayerHp",
          "type": "uint256"
        }
      ],
      "name": "AttackComplete",
      "type": "event"
    },
    {
      "anonymous": false,
      "inputs": [
        {
          "indexed": false,
          "internalType": "address",
          "name": "sender",
          "type": "address"
        },
        {
          "indexed": false,
          "internalType": "uint256",
          "name": "tokenId",
          "type": "uint256"
        },
        {
          "indexed": false,
          "internalType": "uint256",
          "name": "characterIndex",
          "type": "uint256"
        }
      ],
      "name": "CharacterNFTMinted",
      "type": "event"
    },
    {
      "anonymous": false,
      "inputs": [
        {
          "indexed": true,
          "internalType": "address",
          "name": "from",
          "type": "address"
        },
        {
          "indexed": true,
          "internalType": "address",
          "name": "to",
          "type": "address"
        },
        {
          "indexed": true,
          "internalType": "uint256",
          "name": "tokenId",
          "type": "uint256"
        }
      ],
      "name": "Transfer",
      "type": "event"
    },
    {
      "inputs": [
        {
          "internalType": "address",
          "name": "to",
          "type": "address"
        },
        {
          "internalType": "uint256",
          "name": "tokenId",
          "type": "uint256"
        }
      ],
      "name": "approve",
      "outputs": [],
      "stateMutability": "nonpayable",
      "type": "function"
    },
    {
      "inputs": [],
      "name": "attackBoss",
      "outputs": [],
      "stateMutability": "nonpayable",
      "type": "function"
    },
    {
      "inputs": [
        {
          "internalType": "address",
          "name": "owner",
          "type": "address"
        }
      ],
      "name": "balanceOf",
      "outputs": [
        {
          "internalType": "uint256",
          "name": "",
          "type": "uint256"
        }
      ],
      "stateMutability": "view",
      "type": "function"
    },
    {
      "inputs": [],
      "name": "bigBoss",
      "outputs": [
        {
          "internalType": "string",
          "name": "name",
          "type": "string"
        },
        {
          "internalType": "string",
          "name": "imageURI",
          "type": "string"
        },
        {
          "internalType": "uint256",
          "name": "hp",
          "type": "uint256"
        },
        {
          "internalType": "uint256",
          "name": "maxHp",
          "type": "uint256"
        },
        {
          "internalType": "uint256",
          "name": "attackDamage",
          "type": "uint256"
        }
      ],
      "stateMutability": "view",
      "type": "function"
    },
    {
      "inputs": [],
      "name": "checkIfUserHasNFT",
      "outputs": [
        {
          "components": [
            {
              "internalType": "uint256",
              "name": "characterIndex",
              "type": "uint256"
            },
            {
              "internalType": "string",
              "name": "name",
              "type": "string"
            },
            {
              "internalType": "string",
              "name": "imageURI",
              "type": "string"
            },
            {
              "internalType": "uint256",
              "name": "hp",
              "type": "uint256"
            },
            {
              "internalType": "uint256",
              "name": "maxHp",
              "type": "uint256"
            },
            {
              "internalType": "uint256",
              "name": "attackDamage",
              "type": "uint256"
            }
          ],
          "internalType": "struct MyEpicGame.CharacterAttributes",
          "name": "",
          "type": "tuple"
        }
      ],
      "stateMutability": "view",
      "type": "function"
    },
    {
      "inputs": [],
      "name": "getAllDefaultCharacters",
      "outputs": [
        {
          "components": [
            {
              "internalType": "uint256",
              "name": "characterIndex",
              "type": "uint256"
            },
            {
              "internalType": "string",
              "name": "name",
              "type": "string"
            },
            {
              "internalType": "string",
              "name": "imageURI",
              "type": "string"
            },
            {
              "internalType": "uint256",
              "name": "hp",
              "type": "uint256"
            },
            {
              "internalType": "uint256",
              "name": "maxHp",
              "type": "uint256"
            },
            {
              "internalType": "uint256",
              "name": "attackDamage",
              "type": "uint256"
            }
          ],
          "internalType": "struct MyEpicGame.CharacterAttributes[]",
          "name": "",
          "type": "tuple[]"
        }
      ],
      "stateMutability": "view",
      "type": "function"
    },
    {
      "inputs": [
        {
          "internalType": "uint256",
          "name": "tokenId",
          "type": "uint256"
        }
      ],
      "name": "getApproved",
      "outputs": [
        {
          "internalType": "address",
          "name": "",
          "type": "address"
        }
      ],
      "stateMutability": "view",
      "type": "function"
    },
    {
      "inputs": [],
      "name": "getBigBoss",
      "outputs": [
        {
          "components": [
            {
              "internalType": "string",
              "name": "name",
              "type": "string"
            },
            {
              "internalType": "string",
              "name": "imageURI",
              "type": "string"
            },
            {
              "internalType": "uint256",
              "name": "hp",
              "type": "uint256"
            },
            {
              "internalType": "uint256",
              "name": "maxHp",
              "type": "uint256"
            },
            {
              "internalType": "uint256",
              "name": "attackDamage",
              "type": "uint256"
            }
          ],
          "internalType": "struct MyEpicGame.BigBoss",
          "name": "",
          "type": "tuple"
        }
      ],
      "stateMutability": "view",
      "type": "function"
    },
    {
      "inputs": [
        {
          "internalType": "address",
          "name": "owner",
          "type": "address"
        },
        {
          "internalType": "address",
          "name": "operator",
          "type": "address"
        }
      ],
      "name": "isApprovedForAll",
      "outputs": [
        {
          "internalType": "bool",
          "name": "",
          "type": "bool"
        }
      ],
      "stateMutability": "view",
      "type": "function"
    },
    {
      "inputs": [
        {
          "internalType": "uint256",
          "name": "_characterIndex",
          "type": "uint256"
        }
      ],
      "name": "mintCharacterNFT",
      "outputs": [],
      "stateMutability": "nonpayable",
      "type": "function"
    },
    {
      "inputs": [],
      "name": "name",
      "outputs": [
        {
          "internalType": "string",
          "name": "",
          "type": "string"
        }
      ],
      "stateMutability": "view",
      "type": "function"
    },
    {
      "inputs": [
        {
          "internalType": "uint256",
          "name": "",
          "type": "uint256"
        }
      ],
      "name": "nftHolderAttributes",
      "outputs": [
        {
          "internalType": "uint256",
          "name": "characterIndex",
          "type": "uint256"
        },
        {
          "internalType": "string",
          "name": "name",
          "type": "string"
        },
        {
          "internalType": "string",
          "name": "imageURI",
          "type": "string"
        },
        {
          "internalType": "uint256",
          "name": "hp",
          "type": "uint256"
        },
        {
          "internalType": "uint256",
          "name": "maxHp",
          "type": "uint256"
        },
        {
          "internalType": "uint256",
          "name": "attackDamage",
          "type": "uint256"
        }
      ],
      "stateMutability": "view",
      "type": "function"
    },
    {
      "inputs": [
        {
          "internalType": "address",
          "name": "",
          "type": "address"
        }
      ],
      "name": "nftHolders",
      "outputs": [
        {
          "internalType": "uint256",
          "name": "",
          "type": "uint256"
        }
      ],
      "stateMutability": "view",
      "type": "function"
    },
    {
      "inputs": [
        {
          "internalType": "uint256",
          "name": "tokenId",
          "type": "uint256"
        }
      ],
      "name": "ownerOf",
      "outputs": [
        {
          "internalType": "address",
          "name": "",
          "type": "address"
        }
      ],
      "stateMutability": "view",
      "type": "function"
    },
    {
      "inputs": [
        {
          "internalType": "address",
          "name": "from",
          "type": "address"
        },
        {
          "internalType": "address",
          "name": "to",
          "type": "address"
        },
        {
          "internalType": "uint256",
          "name": "tokenId",
          "type": "uint256"
        }
      ],
      "name": "safeTransferFrom",
      "outputs": [],
      "stateMutability": "nonpayable",
      "type": "function"
    },
    {
      "inputs": [
        {
          "internalType": "address",
          "name": "from",
          "type": "address"
        },
        {
          "internalType": "address",
          "name": "to",
          "type": "address"
        },
        {
          "internalType": "uint256",
          "name": "tokenId",
          "type": "uint256"
        },
        {
          "internalType": "bytes",
          "name": "_data",
          "type": "bytes"
        }
      ],
      "name": "safeTransferFrom",
      "outputs": [],
      "stateMutability": "nonpayable",
      "type": "function"
    },
    {
      "inputs": [
        {
          "internalType": "address",
          "name": "operator",
          "type": "address"
        },
        {
          "internalType": "bool",
          "name": "approved",
          "type": "bool"
        }
      ],
      "name": "setApprovalForAll",
      "outputs": [],
      "stateMutability": "nonpayable",
      "type": "function"
    },
    {
      "inputs": [
        {
          "internalType": "bytes4",
          "name": "interfaceId",
          "type": "bytes4"
        }
      ],
      "name": "supportsInterface",
      "outputs": [
        {
          "internalType": "bool",
          "name": "",
          "type": "bool"
        }
      ],
      "stateMutability": "view",
      "type": "function"
    },
    {
      "inputs": [],
      "name": "symbol",
      "outputs": [
        {
          "internalType": "string",
          "name": "",
          "type": "string"
        }
      ],
      "stateMutability": "view",
      "type": "function"
    },
    {
      "inputs": [
        {
          "internalType": "uint256",
          "name": "_tokenId",
          "type": "uint256"
        }
      ],
      "name": "tokenURI",
      "outputs": [
        {
          "internalType": "string",
          "name": "",
          "type": "string"
        }
      ],
      "stateMutability": "view",
      "type": "function"
    },
    {
      "inputs": [
        {
          "internalType": "address",
          "name": "from",
          "type": "address"
        },
        {
          "internalType": "address",
          "name": "to",
          "type": "address"
        },
        {
          "internalType": "uint256",
          "name": "tokenId",
          "type": "uint256"
        }
      ],
      "name": "transferFrom",
      "outputs": [],
      "stateMutability": "nonpayable",
      "type": "function"
    }
  ],
  "bytecode": "0x60806040523480156200001157600080fd5b506040516200572b3803806200572b833981810160405281019062000037919062000a5a565b6040518060400160405280600681526020017f4865726f657300000000000000000000000000000000000000000000000000008152506040518060400160405280600481526020017f4845524f000000000000000000000000000000000000000000000000000000008152508160009080519060200190620000bb929190620007ed565b508060019080519060200190620000d4929190620007ed565b5050506040518060a0016040528085815260200184815260200183815260200183815260200182815250600960008201518160000190805190602001906200011e929190620007ed565b5060208201518160010190805190602001906200013d929190620007ed565b50604082015181600201556060820151816003015560808201518160040155905050620002c06040518060600160405280602a815260200162005701602a9139600960000180546200018f9062000de5565b80601f0160208091040260200160405190810160405280929190818152602001828054620001bd9062000de5565b80156200020e5780601f10620001e2576101008083540402835291602001916200020e565b820191906000526020600020905b815481529060010190602001808311620001f057829003601f168201915b5050505050600960020154600960010180546200022b9062000de5565b80601f0160208091040260200160405190810160405280929190818152602001828054620002599062000de5565b8015620002aa5780601f106200027e57610100808354040283529160200191620002aa565b820191906000526020600020905b8154815290600101906020018083116200028c57829003601f168201915b50505050506200070260201b62001d4f1760201c565b60005b8851811015620006dc5760076040518060c001604052808381526020018b84815181106200031a577f4e487b7100000000000000000000000000000000000000000000000000000000600052603260045260246000fd5b602002602001015181526020018a848151811062000361577f4e487b7100000000000000000000000000000000000000000000000000000000600052603260045260246000fd5b60200260200101518152602001898481518110620003a8577f4e487b7100000000000000000000000000000000000000000000000000000000600052603260045260246000fd5b60200260200101518152602001898481518110620003ef577f4e487b7100000000000000000000000000000000000000000000000000000000600052603260045260246000fd5b6020026020010151815260200188848151811062000436577f4e487b7100000000000000000000000000000000000000000000000000000000600052603260045260246000fd5b6020026020010151815250908060018154018082558091505060019003906000526020600020906006020160009091909190915060008201518160000155602082015181600101908051906020019062000492929190620007ed565b506040820151816002019080519060200190620004b1929190620007ed565b50606082015181600301556080820151816004015560a0820151816005015550506000600782815481106200050f577f4e487b7100000000000000000000000000000000000000000000000000000000600052603260045260246000fd5b90600052602060002090600602016040518060c001604052908160008201548152602001600182018054620005449062000de5565b80601f0160208091040260200160405190810160405280929190818152602001828054620005729062000de5565b8015620005c35780601f106200059757610100808354040283529160200191620005c3565b820191906000526020600020905b815481529060010190602001808311620005a557829003601f168201915b50505050508152602001600282018054620005de9062000de5565b80601f01602080910402602001604051908101604052809291908181526020018280546200060c9062000de5565b80156200065d5780601f1062000631576101008083540402835291602001916200065d565b820191906000526020600020905b8154815290600101906020018083116200063f57829003601f168201915b5050505050815260200160038201548152602001600482015481526020016005820154815250509050620006c4604051806060016040528060258152602001620056dc602591398260200151836060015184604001516200070260201b62001d4f1760201c565b50600181620006d4919062000d48565b9050620002c3565b50620006f46006620007ae60201b62001df11760201c565b505050505050505062000ed3565b620007a8848484846040516024016200071f949392919062000c05565b6040516020818303038152906040527f8d142cdd000000000000000000000000000000000000000000000000000000007bffffffffffffffffffffffffffffffffffffffffffffffffffffffff19166020820180517bffffffffffffffffffffffffffffffffffffffffffffffffffffffff8381831617835250505050620007c460201b60201c565b50505050565b6001816000016000828254019250508190555050565b60008151905060006a636f6e736f6c652e6c6f679050602083016000808483855afa5050505050565b828054620007fb9062000de5565b90600052602060002090601f0160209004810192826200081f57600085556200086b565b82601f106200083a57805160ff19168380011785556200086b565b828001600101855582156200086b579182015b828111156200086a5782518255916020019190600101906200084d565b5b5090506200087a91906200087e565b5090565b5b80821115620008995760008160009055506001016200087f565b5090565b6000620008b4620008ae8462000c9b565b62000c67565b9050808382526020820190508260005b85811015620008f85781518501620008dd888262000a16565b845260208401935060208301925050600181019050620008c4565b5050509392505050565b600062000919620009138462000cca565b62000c67565b905080838252602082019050828560208602820111156200093957600080fd5b60005b858110156200096d578162000952888262000a43565b8452602084019350602083019250506001810190506200093c565b5050509392505050565b60006200098e620009888462000cf9565b62000c67565b905082815260208101848484011115620009a757600080fd5b620009b484828562000daf565b509392505050565b600082601f830112620009ce57600080fd5b8151620009e08482602086016200089d565b91505092915050565b600082601f830112620009fb57600080fd5b815162000a0d84826020860162000902565b91505092915050565b600082601f83011262000a2857600080fd5b815162000a3a84826020860162000977565b91505092915050565b60008151905062000a548162000eb9565b92915050565b600080600080600080600080610100898b03121562000a7857600080fd5b600089015167ffffffffffffffff81111562000a9357600080fd5b62000aa18b828c01620009bc565b985050602089015167ffffffffffffffff81111562000abf57600080fd5b62000acd8b828c01620009bc565b975050604089015167ffffffffffffffff81111562000aeb57600080fd5b62000af98b828c01620009e9565b965050606089015167ffffffffffffffff81111562000b1757600080fd5b62000b258b828c01620009e9565b955050608089015167ffffffffffffffff81111562000b4357600080fd5b62000b518b828c0162000a16565b94505060a089015167ffffffffffffffff81111562000b6f57600080fd5b62000b7d8b828c0162000a16565b93505060c062000b908b828c0162000a43565b92505060e062000ba38b828c0162000a43565b9150509295985092959890939650565b600062000bc08262000d2c565b62000bcc818562000d37565b935062000bde81856020860162000daf565b62000be98162000ea8565b840191505092915050565b62000bff8162000da5565b82525050565b6000608082019050818103600083015262000c21818762000bb3565b9050818103602083015262000c37818662000bb3565b905062000c48604083018562000bf4565b818103606083015262000c5c818462000bb3565b905095945050505050565b6000604051905081810181811067ffffffffffffffff8211171562000c915762000c9062000e79565b5b8060405250919050565b600067ffffffffffffffff82111562000cb95762000cb862000e79565b5b602082029050602081019050919050565b600067ffffffffffffffff82111562000ce85762000ce762000e79565b5b602082029050602081019050919050565b600067ffffffffffffffff82111562000d175762000d1662000e79565b5b601f19601f8301169050602081019050919050565b600081519050919050565b600082825260208201905092915050565b600062000d558262000da5565b915062000d628362000da5565b9250827fffffffffffffffffffffffffffffffffffffffffffffffffffffffffffffffff0382111562000d9a5762000d9962000e1b565b5b828201905092915050565b6000819050919050565b60005b8381101562000dcf57808201518184015260208101905062000db2565b8381111562000ddf576000848401525b50505050565b6000600282049050600182168062000dfe57607f821691505b6020821081141562000e155762000e1462000e4a565b5b50919050565b7f4e487b7100000000000000000000000000000000000000000000000000000000600052601160045260246000fd5b7f4e487b7100000000000000000000000000000000000000000000000000000000600052602260045260246000fd5b7f4e487b7100000000000000000000000000000000000000000000000000000000600052604160045260246000fd5b6000601f19601f8301169050919050565b62000ec48162000da5565b811462000ed057600080fd5b50565b6147f98062000ee36000396000f3fe608060405234801561001057600080fd5b50600436106101375760003560e01c806395d89b41116100b8578063b953084e1161007c578063b953084e14610369578063c87b56dd14610387578063c8cf27f4146103b7578063d4f24c5b146103d5578063e985e9c5146103df578063f8b81ef71461040f57610137565b806395d89b41146102bc57806398da4c95146102da578063a22cb4651461030f578063a9c326791461032b578063b88d4fde1461034d57610137565b806323b872dd116100ff57806323b872dd146101f457806342842e0e146102105780636352211e1461022c57806370a082311461025c5780637df124a11461028c57610137565b806301ffc9a71461013c5780630665f9611461016c57806306fdde031461018a578063081812fc146101a8578063095ea7b3146101d8575b600080fd5b61015660048036038101906101519190613029565b61042b565b6040516101639190613daf565b60405180910390f35b61017461050d565b6040516101819190614148565b60405180910390f35b610192610669565b60405161019f9190613dca565b60405180910390f35b6101c260048036038101906101bd919061307b565b6106fb565b6040516101cf9190613cef565b60405180910390f35b6101f260048036038101906101ed9190612fed565b610780565b005b61020e60048036038101906102099190612ee7565b610898565b005b61022a60048036038101906102259190612ee7565b6108f8565b005b6102466004803603810190610241919061307b565b610918565b6040516102539190613cef565b60405180910390f35b61027660048036038101906102719190612e82565b6109ca565b604051610283919061418c565b60405180910390f35b6102a660048036038101906102a19190612e82565b610a82565b6040516102b3919061418c565b60405180910390f35b6102c4610a9a565b6040516102d19190613dca565b60405180910390f35b6102f460048036038101906102ef919061307b565b610b2c565b604051610306969594939291906141a7565b60405180910390f35b61032960048036038101906103249190612fb1565b610c78565b005b610333610df9565b604051610344959493929190613e99565b60405180910390f35b61036760048036038101906103629190612f36565b610f2d565b005b610371610f8f565b60405161037e9190613d8d565b60405180910390f35b6103a1600480360381019061039c919061307b565b61113a565b6040516103ae9190613dca565b60405180910390f35b6103bf611355565b6040516103cc919061416a565b60405180910390f35b6103dd61152d565b005b6103f960048036038101906103f49190612eab565b6118c7565b6040516104069190613daf565b60405180910390f35b6104296004803603810190610424919061307b565b61195b565b005b60007f80ac58cd000000000000000000000000000000000000000000000000000000007bffffffffffffffffffffffffffffffffffffffffffffffffffffffff1916827bffffffffffffffffffffffffffffffffffffffffffffffffffffffff191614806104f657507f5b5e139f000000000000000000000000000000000000000000000000000000007bffffffffffffffffffffffffffffffffffffffffffffffffffffffff1916827bffffffffffffffffffffffffffffffffffffffffffffffffffffffff1916145b80610506575061050582611e07565b5b9050919050565b610515612ca9565b60096040518060a0016040529081600082018054610532906144f8565b80601f016020809104026020016040519081016040528092919081815260200182805461055e906144f8565b80156105ab5780601f10610580576101008083540402835291602001916105ab565b820191906000526020600020905b81548152906001019060200180831161058e57829003601f168201915b505050505081526020016001820180546105c4906144f8565b80601f01602080910402602001604051908101604052809291908181526020018280546105f0906144f8565b801561063d5780601f106106125761010080835404028352916020019161063d565b820191906000526020600020905b81548152906001019060200180831161062057829003601f168201915b505050505081526020016002820154815260200160038201548152602001600482015481525050905090565b606060008054610678906144f8565b80601f01602080910402602001604051908101604052809291908181526020018280546106a4906144f8565b80156106f15780601f106106c6576101008083540402835291602001916106f1565b820191906000526020600020905b8154815290600101906020018083116106d457829003601f168201915b5050505050905090565b600061070682611e71565b610745576040517f08c379a000000000000000000000000000000000000000000000000000000000815260040161073c906140c8565b60405180910390fd5b6004600083815260200190815260200160002060009054906101000a900473ffffffffffffffffffffffffffffffffffffffff169050919050565b600061078b82610918565b90508073ffffffffffffffffffffffffffffffffffffffff168373ffffffffffffffffffffffffffffffffffffffff1614156107fc576040517f08c379a00000000000000000000000000000000000000000000000000000000081526004016107f390614108565b60405180910390fd5b8073ffffffffffffffffffffffffffffffffffffffff1661081b611edd565b73ffffffffffffffffffffffffffffffffffffffff16148061084a575061084981610844611edd565b6118c7565b5b610889576040517f08c379a000000000000000000000000000000000000000000000000000000000815260040161088090614028565b60405180910390fd5b6108938383611ee5565b505050565b6108a96108a3611edd565b82611f9e565b6108e8576040517f08c379a00000000000000000000000000000000000000000000000000000000081526004016108df90614128565b60405180910390fd5b6108f383838361207c565b505050565b61091383838360405180602001604052806000815250610f2d565b505050565b6000806002600084815260200190815260200160002060009054906101000a900473ffffffffffffffffffffffffffffffffffffffff169050600073ffffffffffffffffffffffffffffffffffffffff168173ffffffffffffffffffffffffffffffffffffffff1614156109c1576040517f08c379a00000000000000000000000000000000000000000000000000000000081526004016109b890614068565b60405180910390fd5b80915050919050565b60008073ffffffffffffffffffffffffffffffffffffffff168273ffffffffffffffffffffffffffffffffffffffff161415610a3b576040517f08c379a0000000000000000000000000000000000000000000000000000000008152600401610a3290614048565b60405180910390fd5b600360008373ffffffffffffffffffffffffffffffffffffffff1673ffffffffffffffffffffffffffffffffffffffff168152602001908152602001600020549050919050565b600e6020528060005260406000206000915090505481565b606060018054610aa9906144f8565b80601f0160208091040260200160405190810160405280929190818152602001828054610ad5906144f8565b8015610b225780601f10610af757610100808354040283529160200191610b22565b820191906000526020600020905b815481529060010190602001808311610b0557829003601f168201915b5050505050905090565b6008602052806000526040600020600091509050806000015490806001018054610b55906144f8565b80601f0160208091040260200160405190810160405280929190818152602001828054610b81906144f8565b8015610bce5780601f10610ba357610100808354040283529160200191610bce565b820191906000526020600020905b815481529060010190602001808311610bb157829003601f168201915b505050505090806002018054610be3906144f8565b80601f0160208091040260200160405190810160405280929190818152602001828054610c0f906144f8565b8015610c5c5780601f10610c3157610100808354040283529160200191610c5c565b820191906000526020600020905b815481529060010190602001808311610c3f57829003601f168201915b5050505050908060030154908060040154908060050154905086565b610c80611edd565b73ffffffffffffffffffffffffffffffffffffffff168273ffffffffffffffffffffffffffffffffffffffff161415610cee576040517f08c379a0000000000000000000000000000000000000000000000000000000008152600401610ce590613fe8565b60405180910390fd5b8060056000610cfb611edd565b73ffffffffffffffffffffffffffffffffffffffff1673ffffffffffffffffffffffffffffffffffffffff16815260200190815260200160002060008473ffffffffffffffffffffffffffffffffffffffff1673ffffffffffffffffffffffffffffffffffffffff16815260200190815260200160002060006101000a81548160ff0219169083151502179055508173ffffffffffffffffffffffffffffffffffffffff16610da8611edd565b73ffffffffffffffffffffffffffffffffffffffff167f17307eab39ab6107e8899845ad3d59bd9653f200f220920489ca2b5937696c3183604051610ded9190613daf565b60405180910390a35050565b6009806000018054610e0a906144f8565b80601f0160208091040260200160405190810160405280929190818152602001828054610e36906144f8565b8015610e835780601f10610e5857610100808354040283529160200191610e83565b820191906000526020600020905b815481529060010190602001808311610e6657829003601f168201915b505050505090806001018054610e98906144f8565b80601f0160208091040260200160405190810160405280929190818152602001828054610ec4906144f8565b8015610f115780601f10610ee657610100808354040283529160200191610f11565b820191906000526020600020905b815481529060010190602001808311610ef457829003601f168201915b5050505050908060020154908060030154908060040154905085565b610f3e610f38611edd565b83611f9e565b610f7d576040517f08c379a0000000000000000000000000000000000000000000000000000000008152600401610f7490614128565b60405180910390fd5b610f89848484846122d8565b50505050565b60606007805480602002602001604051908101604052809291908181526020016000905b8282101561113157838290600052602060002090600602016040518060c001604052908160008201548152602001600182018054610ff0906144f8565b80601f016020809104026020016040519081016040528092919081815260200182805461101c906144f8565b80156110695780601f1061103e57610100808354040283529160200191611069565b820191906000526020600020905b81548152906001019060200180831161104c57829003601f168201915b50505050508152602001600282018054611082906144f8565b80601f01602080910402602001604051908101604052809291908181526020018280546110ae906144f8565b80156110fb5780601f106110d0576101008083540402835291602001916110fb565b820191906000526020600020905b8154815290600101906020018083116110de57829003601f168201915b50505050508152602001600382015481526020016004820154815260200160058201548152505081526020019060010190610fb3565b50505050905090565b60606000600860008481526020019081526020016000206040518060c001604052908160008201548152602001600182018054611176906144f8565b80601f01602080910402602001604051908101604052809291908181526020018280546111a2906144f8565b80156111ef5780601f106111c4576101008083540402835291602001916111ef565b820191906000526020600020905b8154815290600101906020018083116111d257829003601f168201915b50505050508152602001600282018054611208906144f8565b80601f0160208091040260200160405190810160405280929190818152602001828054611234906144f8565b80156112815780601f1061125657610100808354040283529160200191611281565b820191906000526020600020905b81548152906001019060200180831161126457829003601f168201915b505050505081526020016003820154815260200160048201548152602001600582015481525050905060006112b98260600151612334565b905060006112ca8360800151612334565b905060006112db8460a00151612334565b9050600061132185602001516112f089612334565b876040015187878760405160200161130d96959493929190613c28565b6040516020818303038152906040526124e1565b90506000816040516020016113369190613ccd565b6040516020818303038152906040529050809650505050505050919050565b61135d612cd8565b6000600e60003373ffffffffffffffffffffffffffffffffffffffff1673ffffffffffffffffffffffffffffffffffffffff168152602001908152602001600020549050600081111561151c57600860008281526020019081526020016000206040518060c0016040529081600082015481526020016001820180546113e2906144f8565b80601f016020809104026020016040519081016040528092919081815260200182805461140e906144f8565b801561145b5780601f106114305761010080835404028352916020019161145b565b820191906000526020600020905b81548152906001019060200180831161143e57829003601f168201915b50505050508152602001600282018054611474906144f8565b80601f01602080910402602001604051908101604052809291908181526020018280546114a0906144f8565b80156114ed5780601f106114c2576101008083540402835291602001916114ed565b820191906000526020600020905b8154815290600101906020018083116114d057829003601f168201915b50505050508152602001600382015481526020016004820154815260200160058201548152505091505061152a565b611524612cd8565b80925050505b90565b6000600e60003373ffffffffffffffffffffffffffffffffffffffff1673ffffffffffffffffffffffffffffffffffffffff16815260200190815260200160002054905060006008600083815260200190815260200160002090506116406040518060600160405280603c8152602001614788603c91398260010180546115b3906144f8565b80601f01602080910402602001604051908101604052809291908181526020018280546115df906144f8565b801561162c5780601f106116015761010080835404028352916020019161162c565b820191906000526020600020905b81548152906001019060200180831161160f57829003601f168201915b50505050508360030154846005015461269f565b6117186040518060400160405280601b81526020017f426f73732025732068617320257320485020616e64202573204144000000000081525060096000018054611689906144f8565b80601f01602080910402602001604051908101604052809291908181526020018280546116b5906144f8565b80156117025780601f106116d757610100808354040283529160200191611702565b820191906000526020600020905b8154815290600101906020018083116116e557829003601f168201915b505050505060096002015460096004015461269f565b600081600301541161175f576040517f08c379a000000000000000000000000000000000000000000000000000000000815260040161175690614088565b60405180910390fd5b6000600960020154116117a7576040517f08c379a000000000000000000000000000000000000000000000000000000000815260040161179e90613f88565b60405180910390fd5b806005015460096002015410156117c85760006009600201819055506117e7565b80600501546009600201546117dd919061440e565b6009600201819055505b61180e6040518060600160405280602581526020016146ce60259139600960020154612741565b60006009600201541115611881576009600401548160030154101561183c576000816003018190555061185a565b6009600401548160030154611851919061440e565b81600301819055505b611880604051806060016040528060278152602001614761602791398260030154612741565b5b7f838ab28464562786a6c4ab2311964b82fa60bd9b14aa7e856af1f3f18d41a41460096002015482600301546040516118bb929190614216565b60405180910390a15050565b6000600560008473ffffffffffffffffffffffffffffffffffffffff1673ffffffffffffffffffffffffffffffffffffffff16815260200190815260200160002060008373ffffffffffffffffffffffffffffffffffffffff1673ffffffffffffffffffffffffffffffffffffffff16815260200190815260200160002060009054906101000a900460ff16905092915050565b600061196760066127dd565b905061197333826127eb565b6040518060c00160405280838152602001600784815481106119be577f4e487b7100000000000000000000000000000000000000000000000000000000600052603260045260246000fd5b906000526020600020906006020160010180546119da906144f8565b80601f0160208091040260200160405190810160405280929190818152602001828054611a06906144f8565b8015611a535780601f10611a2857610100808354040283529160200191611a53565b820191906000526020600020905b815481529060010190602001808311611a3657829003601f168201915b5050505050815260200160078481548110611a97577f4e487b7100000000000000000000000000000000000000000000000000000000600052603260045260246000fd5b90600052602060002090600602016002018054611ab3906144f8565b80601f0160208091040260200160405190810160405280929190818152602001828054611adf906144f8565b8015611b2c5780601f10611b0157610100808354040283529160200191611b2c565b820191906000526020600020905b815481529060010190602001808311611b0f57829003601f168201915b5050505050815260200160078481548110611b70577f4e487b7100000000000000000000000000000000000000000000000000000000600052603260045260246000fd5b906000526020600020906006020160030154815260200160078481548110611bc1577f4e487b7100000000000000000000000000000000000000000000000000000000600052603260045260246000fd5b906000526020600020906006020160030154815260200160078481548110611c12577f4e487b7100000000000000000000000000000000000000000000000000000000600052603260045260246000fd5b90600052602060002090600602016005015481525060086000838152602001908152602001600020600082015181600001556020820151816001019080519060200190611c60929190612d0e565b506040820151816002019080519060200190611c7d929190612d0e565b50606082015181600301556080820151816004015560a08201518160050155905050611cc26040518060600160405280602e8152602001614733602e91398284612809565b80600e60003373ffffffffffffffffffffffffffffffffffffffff1673ffffffffffffffffffffffffffffffffffffffff16815260200190815260200160002081905550611d106006611df1565b7f4bc303fd457a97b4691b9af582ce71868a3d258638c8d4f8c60988a0f0bfb8cd338284604051611d4393929190613d56565b60405180910390a15050565b611deb84848484604051602401611d699493929190613dec565b6040516020818303038152906040527f8d142cdd000000000000000000000000000000000000000000000000000000007bffffffffffffffffffffffffffffffffffffffffffffffffffffffff19166020820180517bffffffffffffffffffffffffffffffffffffffffffffffffffffffff83818316178352505050506128a8565b50505050565b6001816000016000828254019250508190555050565b60007f01ffc9a7000000000000000000000000000000000000000000000000000000007bffffffffffffffffffffffffffffffffffffffffffffffffffffffff1916827bffffffffffffffffffffffffffffffffffffffffffffffffffffffff1916149050919050565b60008073ffffffffffffffffffffffffffffffffffffffff166002600084815260200190815260200160002060009054906101000a900473ffffffffffffffffffffffffffffffffffffffff1673ffffffffffffffffffffffffffffffffffffffff1614159050919050565b600033905090565b816004600083815260200190815260200160002060006101000a81548173ffffffffffffffffffffffffffffffffffffffff021916908373ffffffffffffffffffffffffffffffffffffffff160217905550808273ffffffffffffffffffffffffffffffffffffffff16611f5883610918565b73ffffffffffffffffffffffffffffffffffffffff167f8c5be1e5ebec7d5bd14f71427d1e84f3dd0314c0f7b2291e5b200ac8c7c3b92560405160405180910390a45050565b6000611fa982611e71565b611fe8576040517f08c379a0000000000000000000000000000000000000000000000000000000008152600401611fdf90614008565b60405180910390fd5b6000611ff383610918565b90508073ffffffffffffffffffffffffffffffffffffffff168473ffffffffffffffffffffffffffffffffffffffff16148061206257508373ffffffffffffffffffffffffffffffffffffffff1661204a846106fb565b73ffffffffffffffffffffffffffffffffffffffff16145b80612073575061207281856118c7565b5b91505092915050565b8273ffffffffffffffffffffffffffffffffffffffff1661209c82610918565b73ffffffffffffffffffffffffffffffffffffffff16146120f2576040517f08c379a00000000000000000000000000000000000000000000000000000000081526004016120e9906140e8565b60405180910390fd5b600073ffffffffffffffffffffffffffffffffffffffff168273ffffffffffffffffffffffffffffffffffffffff161415612162576040517f08c379a000000000000000000000000000000000000000000000000000000000815260040161215990613fc8565b60405180910390fd5b61216d8383836128d1565b612178600082611ee5565b6001600360008573ffffffffffffffffffffffffffffffffffffffff1673ffffffffffffffffffffffffffffffffffffffff16815260200190815260200160002060008282546121c8919061440e565b925050819055506001600360008473ffffffffffffffffffffffffffffffffffffffff1673ffffffffffffffffffffffffffffffffffffffff168152602001908152602001600020600082825461221f919061432d565b92505081905550816002600083815260200190815260200160002060006101000a81548173ffffffffffffffffffffffffffffffffffffffff021916908373ffffffffffffffffffffffffffffffffffffffff160217905550808273ffffffffffffffffffffffffffffffffffffffff168473ffffffffffffffffffffffffffffffffffffffff167fddf252ad1be2c89b69c2b068fc378daa952ba7f163c4a11628f55a4df523b3ef60405160405180910390a4505050565b6122e384848461207c565b6122ef848484846128d6565b61232e576040517f08c379a000000000000000000000000000000000000000000000000000000000815260040161232590613f68565b60405180910390fd5b50505050565b6060600082141561237c576040518060400160405280600181526020017f300000000000000000000000000000000000000000000000000000000000000081525090506124dc565b600082905060005b600082146123ae5780806123979061452a565b915050600a826123a79190614383565b9150612384565b60008167ffffffffffffffff8111156123f0577f4e487b7100000000000000000000000000000000000000000000000000000000600052604160045260246000fd5b6040519080825280601f01601f1916602001820160405280156124225781602001600182028036833780820191505090505b5090505b600085146124d55760018261243b919061440e565b9150600a8561244a9190614573565b6030612456919061432d565b60f81b818381518110612492577f4e487b7100000000000000000000000000000000000000000000000000000000600052603260045260246000fd5b60200101907effffffffffffffffffffffffffffffffffffffffffffffffffffffffffffff1916908160001a905350600a856124ce9190614383565b9450612426565b8093505050505b919050565b6060600082519050600081141561250a576040518060200160405280600081525091505061269a565b6000600360028361251b919061432d565b6125259190614383565b600461253191906143b4565b90506000602082612542919061432d565b67ffffffffffffffff811115612581577f4e487b7100000000000000000000000000000000000000000000000000000000600052604160045260246000fd5b6040519080825280601f01601f1916602001820160405280156125b35781602001600182028036833780820191505090505b50905060006040518060600160405280604081526020016146f3604091399050600181016020830160005b868110156126575760038101905062ffffff818a015116603f8160121c168401518060081b905060ff603f83600c1c1686015116810190508060081b905060ff603f8360061c1686015116810190508060081b905060ff603f831686015116810190508060e01b905080845260048401935050506125de565b50600386066001811461267157600281146126815761268c565b613d3d60f01b600283035261268c565b603d60f81b60018303525b508484525050819450505050505b919050565b61273b848484846040516024016126b99493929190613e46565b6040516020818303038152906040527fd5cf17d0000000000000000000000000000000000000000000000000000000007bffffffffffffffffffffffffffffffffffffffffffffffffffffffff19166020820180517bffffffffffffffffffffffffffffffffffffffffffffffffffffffff83818316178352505050506128a8565b50505050565b6127d98282604051602401612757929190613efa565b6040516020818303038152906040527f9710a9d0000000000000000000000000000000000000000000000000000000007bffffffffffffffffffffffffffffffffffffffffffffffffffffffff19166020820180517bffffffffffffffffffffffffffffffffffffffffffffffffffffffff83818316178352505050506128a8565b5050565b600081600001549050919050565b612805828260405180602001604052806000815250612a6d565b5050565b6128a383838360405160240161282193929190613f2a565b6040516020818303038152906040527f969cdd03000000000000000000000000000000000000000000000000000000007bffffffffffffffffffffffffffffffffffffffffffffffffffffffff19166020820180517bffffffffffffffffffffffffffffffffffffffffffffffffffffffff83818316178352505050506128a8565b505050565b60008151905060006a636f6e736f6c652e6c6f679050602083016000808483855afa5050505050565b505050565b60006128f78473ffffffffffffffffffffffffffffffffffffffff16612ac8565b15612a60578373ffffffffffffffffffffffffffffffffffffffff1663150b7a02612920611edd565b8786866040518563ffffffff1660e01b81526004016129429493929190613d0a565b602060405180830381600087803b15801561295c57600080fd5b505af192505050801561298d57506040513d601f19601f8201168201806040525081019061298a9190613052565b60015b612a10573d80600081146129bd576040519150601f19603f3d011682016040523d82523d6000602084013e6129c2565b606091505b50600081511415612a08576040517f08c379a00000000000000000000000000000000000000000000000000000000081526004016129ff90613f68565b60405180910390fd5b805181602001fd5b63150b7a0260e01b7bffffffffffffffffffffffffffffffffffffffffffffffffffffffff1916817bffffffffffffffffffffffffffffffffffffffffffffffffffffffff191614915050612a65565b600190505b949350505050565b612a778383612adb565b612a8460008484846128d6565b612ac3576040517f08c379a0000000000000000000000000000000000000000000000000000000008152600401612aba90613f68565b60405180910390fd5b505050565b600080823b905060008111915050919050565b600073ffffffffffffffffffffffffffffffffffffffff168273ffffffffffffffffffffffffffffffffffffffff161415612b4b576040517f08c379a0000000000000000000000000000000000000000000000000000000008152600401612b42906140a8565b60405180910390fd5b612b5481611e71565b15612b94576040517f08c379a0000000000000000000000000000000000000000000000000000000008152600401612b8b90613fa8565b60405180910390fd5b612ba0600083836128d1565b6001600360008473ffffffffffffffffffffffffffffffffffffffff1673ffffffffffffffffffffffffffffffffffffffff1681526020019081526020016000206000828254612bf0919061432d565b92505081905550816002600083815260200190815260200160002060006101000a81548173ffffffffffffffffffffffffffffffffffffffff021916908373ffffffffffffffffffffffffffffffffffffffff160217905550808273ffffffffffffffffffffffffffffffffffffffff16600073ffffffffffffffffffffffffffffffffffffffff167fddf252ad1be2c89b69c2b068fc378daa952ba7f163c4a11628f55a4df523b3ef60405160405180910390a45050565b6040518060a0016040528060608152602001606081526020016000815260200160008152602001600081525090565b6040518060c001604052806000815260200160608152602001606081526020016000815260200160008152602001600081525090565b828054612d1a906144f8565b90600052602060002090601f016020900481019282612d3c5760008555612d83565b82601f10612d5557805160ff1916838001178555612d83565b82800160010185558215612d83579182015b82811115612d82578251825591602001919060010190612d67565b5b509050612d909190612d94565b5090565b5b80821115612dad576000816000905550600101612d95565b5090565b6000612dc4612dbf84614270565b61423f565b905082815260208101848484011115612ddc57600080fd5b612de78482856144b6565b509392505050565b600081359050612dfe81614671565b92915050565b600081359050612e1381614688565b92915050565b600081359050612e288161469f565b92915050565b600081519050612e3d8161469f565b92915050565b600082601f830112612e5457600080fd5b8135612e64848260208601612db1565b91505092915050565b600081359050612e7c816146b6565b92915050565b600060208284031215612e9457600080fd5b6000612ea284828501612def565b91505092915050565b60008060408385031215612ebe57600080fd5b6000612ecc85828601612def565b9250506020612edd85828601612def565b9150509250929050565b600080600060608486031215612efc57600080fd5b6000612f0a86828701612def565b9350506020612f1b86828701612def565b9250506040612f2c86828701612e6d565b9150509250925092565b60008060008060808587031215612f4c57600080fd5b6000612f5a87828801612def565b9450506020612f6b87828801612def565b9350506040612f7c87828801612e6d565b925050606085013567ffffffffffffffff811115612f9957600080fd5b612fa587828801612e43565b91505092959194509250565b60008060408385031215612fc457600080fd5b6000612fd285828601612def565b9250506020612fe385828601612e04565b9150509250929050565b6000806040838503121561300057600080fd5b600061300e85828601612def565b925050602061301f85828601612e6d565b9150509250929050565b60006020828403121561303b57600080fd5b600061304984828501612e19565b91505092915050565b60006020828403121561306457600080fd5b600061307284828501612e2e565b91505092915050565b60006020828403121561308d57600080fd5b600061309b84828501612e6d565b91505092915050565b60006130b08383613aea565b905092915050565b6130c181614442565b82525050565b60006130d2826142b0565b6130dc81856142de565b9350836020820285016130ee856142a0565b8060005b8581101561312a578484038952815161310b85826130a4565b9450613116836142d1565b925060208a019950506001810190506130f2565b50829750879550505050505092915050565b61314581614454565b82525050565b6000613156826142bb565b61316081856142ef565b93506131708185602086016144c5565b61317981614660565b840191505092915050565b600061318f826142c6565b6131998185614300565b93506131a98185602086016144c5565b6131b281614660565b840191505092915050565b60006131c8826142c6565b6131d28185614311565b93506131e28185602086016144c5565b6131eb81614660565b840191505092915050565b6000613201826142c6565b61320b8185614322565b935061321b8185602086016144c5565b80840191505092915050565b6000613234600b83614322565b91507f202d2d204e465420233a200000000000000000000000000000000000000000006000830152600b82019050919050565b6000613274603283614311565b91507f4552433732313a207472616e7366657220746f206e6f6e20455243373231526560008301527f63656976657220696d706c656d656e74657200000000000000000000000000006020830152604082019050919050565b60006132da602883614311565b91507f4572726f723a20626f7373206d757374206861766520485020746f206174746160008301527f636b20626f73732e0000000000000000000000000000000000000000000000006020830152604082019050919050565b6000613340601c83614311565b91507f4552433732313a20746f6b656e20616c7265616479206d696e746564000000006000830152602082019050919050565b6000613380600e83614322565b91507f2c20226d61785f76616c7565223a0000000000000000000000000000000000006000830152600e82019050919050565b60006133c0602483614311565b91507f4552433732313a207472616e7366657220746f20746865207a65726f2061646460008301527f72657373000000000000000000000000000000000000000000000000000000006020830152604082019050919050565b6000613426601983614311565b91507f4552433732313a20617070726f766520746f2063616c6c6572000000000000006000830152602082019050919050565b6000613466602c83614311565b91507f4552433732313a206f70657261746f7220717565727920666f72206e6f6e657860008301527f697374656e7420746f6b656e00000000000000000000000000000000000000006020830152604082019050919050565b60006134cc603883614311565b91507f4552433732313a20617070726f76652063616c6c6572206973206e6f74206f7760008301527f6e6572206e6f7220617070726f76656420666f7220616c6c00000000000000006020830152604082019050919050565b6000613532602a83614311565b91507f4552433732313a2062616c616e636520717565727920666f7220746865207a6560008301527f726f2061646472657373000000000000000000000000000000000000000000006020830152604082019050919050565b6000613598602983614311565b91507f4552433732313a206f776e657220717565727920666f72206e6f6e657869737460008301527f656e7420746f6b656e00000000000000000000000000000000000000000000006020830152604082019050919050565b60006135fe606283614322565b91507f222c20226465736372697074696f6e223a20225468697320697320616e204e4660008301527f542074686174206c6574732070656f706c6520706c617920696e20746865206760208301527f616d65204d657461766572736520536c6179657221222c2022696d616765223a60408301527f20220000000000000000000000000000000000000000000000000000000000006060830152606282019050919050565b60006136b0602d83614311565b91507f4572726f723a20636861726163746572206d757374206861766520485020746f60008301527f2061747461636b20626f73732e000000000000000000000000000000000000006020830152604082019050919050565b6000613716600483614322565b91507f7d205d7d000000000000000000000000000000000000000000000000000000006000830152600482019050919050565b6000613756602083614311565b91507f4552433732313a206d696e7420746f20746865207a65726f20616464726573736000830152602082019050919050565b6000613796602c83614311565b91507f4552433732313a20617070726f76656420717565727920666f72206e6f6e657860008301527f697374656e7420746f6b656e00000000000000000000000000000000000000006020830152604082019050919050565b60006137fc602983614311565b91507f4552433732313a207472616e73666572206f6620746f6b656e2074686174206960008301527f73206e6f74206f776e00000000000000000000000000000000000000000000006020830152604082019050919050565b6000613862600a83614322565b91507f7b226e616d65223a2022000000000000000000000000000000000000000000006000830152600a82019050919050565b60006138a2602183614311565b91507f4552433732313a20617070726f76616c20746f2063757272656e74206f776e6560008301527f72000000000000000000000000000000000000000000000000000000000000006020830152604082019050919050565b6000613908601d83614322565b91507f646174613a6170706c69636174696f6e2f6a736f6e3b6261736536342c0000006000830152601d82019050919050565b6000613948603183614311565b91507f4552433732313a207472616e736665722063616c6c6572206973206e6f74206f60008301527f776e6572206e6f7220617070726f7665640000000000000000000000000000006020830152604082019050919050565b60006139ae603d83614322565b91507f222c202261747472696275746573223a205b207b202274726169745f7479706560008301527f223a20224865616c746820506f696e7473222c202276616c7565223a200000006020830152603d82019050919050565b6000613a14602d83614322565b91507f7d2c207b202274726169745f74797065223a202241747461636b2044616d616760008301527f65222c202276616c7565223a20000000000000000000000000000000000000006020830152602d82019050919050565b600060a0830160008301518482036000860152613a8a8282613184565b91505060208301518482036020860152613aa48282613184565b9150506040830151613ab96040860182613c0a565b506060830151613acc6060860182613c0a565b506080830151613adf6080860182613c0a565b508091505092915050565b600060c083016000830151613b026000860182613c0a565b5060208301518482036020860152613b1a8282613184565b91505060408301518482036040860152613b348282613184565b9150506060830151613b496060860182613c0a565b506080830151613b5c6080860182613c0a565b5060a0830151613b6f60a0860182613c0a565b508091505092915050565b600060c083016000830151613b926000860182613c0a565b5060208301518482036020860152613baa8282613184565b91505060408301518482036040860152613bc48282613184565b9150506060830151613bd96060860182613c0a565b506080830151613bec6080860182613c0a565b5060a0830151613bff60a0860182613c0a565b508091505092915050565b613c13816144ac565b82525050565b613c22816144ac565b82525050565b6000613c3382613855565b9150613c3f82896131f6565b9150613c4a82613227565b9150613c5682886131f6565b9150613c61826135f1565b9150613c6d82876131f6565b9150613c78826139a1565b9150613c8482866131f6565b9150613c8f82613373565b9150613c9b82856131f6565b9150613ca682613a07565b9150613cb282846131f6565b9150613cbd82613709565b9150819050979650505050505050565b6000613cd8826138fb565b9150613ce482846131f6565b915081905092915050565b6000602082019050613d0460008301846130b8565b92915050565b6000608082019050613d1f60008301876130b8565b613d2c60208301866130b8565b613d396040830185613c19565b8181036060830152613d4b818461314b565b905095945050505050565b6000606082019050613d6b60008301866130b8565b613d786020830185613c19565b613d856040830184613c19565b949350505050565b60006020820190508181036000830152613da781846130c7565b905092915050565b6000602082019050613dc4600083018461313c565b92915050565b60006020820190508181036000830152613de481846131bd565b905092915050565b60006080820190508181036000830152613e0681876131bd565b90508181036020830152613e1a81866131bd565b9050613e296040830185613c19565b8181036060830152613e3b81846131bd565b905095945050505050565b60006080820190508181036000830152613e6081876131bd565b90508181036020830152613e7481866131bd565b9050613e836040830185613c19565b613e906060830184613c19565b95945050505050565b600060a0820190508181036000830152613eb381886131bd565b90508181036020830152613ec781876131bd565b9050613ed66040830186613c19565b613ee36060830185613c19565b613ef06080830184613c19565b9695505050505050565b60006040820190508181036000830152613f1481856131bd565b9050613f236020830184613c19565b9392505050565b60006060820190508181036000830152613f4481866131bd565b9050613f536020830185613c19565b613f606040830184613c19565b949350505050565b60006020820190508181036000830152613f8181613267565b9050919050565b60006020820190508181036000830152613fa1816132cd565b9050919050565b60006020820190508181036000830152613fc181613333565b9050919050565b60006020820190508181036000830152613fe1816133b3565b9050919050565b6000602082019050818103600083015261400181613419565b9050919050565b6000602082019050818103600083015261402181613459565b9050919050565b60006020820190508181036000830152614041816134bf565b9050919050565b6000602082019050818103600083015261406181613525565b9050919050565b600060208201905081810360008301526140818161358b565b9050919050565b600060208201905081810360008301526140a1816136a3565b9050919050565b600060208201905081810360008301526140c181613749565b9050919050565b600060208201905081810360008301526140e181613789565b9050919050565b60006020820190508181036000830152614101816137ef565b9050919050565b6000602082019050818103600083015261412181613895565b9050919050565b600060208201905081810360008301526141418161393b565b9050919050565b600060208201905081810360008301526141628184613a6d565b905092915050565b600060208201905081810360008301526141848184613b7a565b905092915050565b60006020820190506141a16000830184613c19565b92915050565b600060c0820190506141bc6000830189613c19565b81810360208301526141ce81886131bd565b905081810360408301526141e281876131bd565b90506141f16060830186613c19565b6141fe6080830185613c19565b61420b60a0830184613c19565b979650505050505050565b600060408201905061422b6000830185613c19565b6142386020830184613c19565b9392505050565b6000604051905081810181811067ffffffffffffffff8211171561426657614265614631565b5b8060405250919050565b600067ffffffffffffffff82111561428b5761428a614631565b5b601f19601f8301169050602081019050919050565b6000819050602082019050919050565b600081519050919050565b600081519050919050565b600081519050919050565b6000602082019050919050565b600082825260208201905092915050565b600082825260208201905092915050565b600082825260208201905092915050565b600082825260208201905092915050565b600081905092915050565b6000614338826144ac565b9150614343836144ac565b9250827fffffffffffffffffffffffffffffffffffffffffffffffffffffffffffffffff03821115614378576143776145a4565b5b828201905092915050565b600061438e826144ac565b9150614399836144ac565b9250826143a9576143a86145d3565b5b828204905092915050565b60006143bf826144ac565b91506143ca836144ac565b9250817fffffffffffffffffffffffffffffffffffffffffffffffffffffffffffffffff0483118215151615614403576144026145a4565b5b828202905092915050565b6000614419826144ac565b9150614424836144ac565b925082821015614437576144366145a4565b5b828203905092915050565b600061444d8261448c565b9050919050565b60008115159050919050565b60007fffffffff0000000000000000000000000000000000000000000000000000000082169050919050565b600073ffffffffffffffffffffffffffffffffffffffff82169050919050565b6000819050919050565b82818337600083830152505050565b60005b838110156144e35780820151818401526020810190506144c8565b838111156144f2576000848401525b50505050565b6000600282049050600182168061451057607f821691505b6020821081141561452457614523614602565b5b50919050565b6000614535826144ac565b91507fffffffffffffffffffffffffffffffffffffffffffffffffffffffffffffffff821415614568576145676145a4565b5b600182019050919050565b600061457e826144ac565b9150614589836144ac565b925082614599576145986145d3565b5b828206905092915050565b7f4e487b7100000000000000000000000000000000000000000000000000000000600052601160045260246000fd5b7f4e487b7100000000000000000000000000000000000000000000000000000000600052601260045260246000fd5b7f4e487b7100000000000000000000000000000000000000000000000000000000600052602260045260246000fd5b7f4e487b7100000000000000000000000000000000000000000000000000000000600052604160045260246000fd5b6000601f19601f8301169050919050565b61467a81614442565b811461468557600080fd5b50565b61469181614454565b811461469c57600080fd5b50565b6146a881614460565b81146146b357600080fd5b50565b6146bf816144ac565b81146146ca57600080fd5b5056fe506c617965722061747461636b656420626f73732e204e657720626f73732068703a2025734142434445464748494a4b4c4d4e4f505152535455565758595a6162636465666768696a6b6c6d6e6f707172737475767778797a303132333435363738392b2f4d696e746564204e465420772f20746f6b656e496420257320616e6420636861726163746572496e646578202573426f73732061747461636b656420706c617965722e204e657720706c617965722068703a2025730a506c6179657220772f206368617261637465722025732061626f757420746f2061747461636b2e2048617320257320485020616e64202573204144a2646970667358221220de5fd11e1032260ac77e2558ab66db41f7ad0ab3b0c9d1cc486656e9e4ff607864736f6c63430008000033446f6e6520696e697469616c697a696e6720257320772f2048502025732c20696d67202573446f6e6520696e697469616c697a696e6720626f737320257320772f2048502025732c20696d67202573",
  "linkReferences": {},
  "deployedLinkReferences": {}
}