{
  "_format": "hh-sol-artifact-1",
  "contractName": "MyEpicGame",
  "sourceName": "contracts/MyEpicGame.sol",
  "abi": [
    {
      "inputs": [
        {
          "internalType": "string[]",
          "name": "characterNames",
          "type": "string[]"
        },
        {
          "internalType": "string[]",
          "name": "characterImageURIs",
          "type": "string[]"
        },
        {
          "internalType": "uint256[]",
          "name": "characterHp",
          "type": "uint256[]"
        },
        {
          "internalType": "uint256[]",
          "name": "characterAttackDmg",
          "type": "uint256[]"
        },
        {
          "internalType": "uint256[]",
          "name": "characterCritChance",
          "type": "uint256[]"
        },
        {
          "internalType": "string",
          "name": "bossName",
          "type": "string"
        },
        {
          "internalType": "string",
          "name": "bossImageURI",
          "type": "string"
        },
        {
          "internalType": "uint256",
          "name": "bossHp",
          "type": "uint256"
        },
        {
          "internalType": "uint256",
          "name": "bossAttackDamage",
          "type": "uint256"
        }
      ],
      "stateMutability": "nonpayable",
      "type": "constructor"
    },
    {
      "anonymous": false,
      "inputs": [
        {
          "indexed": true,
          "internalType": "address",
          "name": "owner",
          "type": "address"
        },
        {
          "indexed": true,
          "internalType": "address",
          "name": "approved",
          "type": "address"
        },
        {
          "indexed": true,
          "internalType": "uint256",
          "name": "tokenId",
          "type": "uint256"
        }
      ],
      "name": "Approval",
      "type": "event"
    },
    {
      "anonymous": false,
      "inputs": [
        {
          "indexed": true,
          "internalType": "address",
          "name": "owner",
          "type": "address"
        },
        {
          "indexed": true,
          "internalType": "address",
          "name": "operator",
          "type": "address"
        },
        {
          "indexed": false,
          "internalType": "bool",
          "name": "approved",
          "type": "bool"
        }
      ],
      "name": "ApprovalForAll",
      "type": "event"
    },
    {
      "anonymous": false,
      "inputs": [
        {
          "indexed": false,
          "internalType": "uint256",
          "name": "newBossHp",
          "type": "uint256"
        },
        {
          "indexed": false,
          "internalType": "uint256",
          "name": "newPlayerHp",
          "type": "uint256"
        }
      ],
      "name": "AttackComplete",
      "type": "event"
    },
    {
      "anonymous": false,
      "inputs": [
        {
          "indexed": true,
          "internalType": "bytes32",
          "name": "requestId",
          "type": "bytes32"
        },
        {
          "indexed": true,
          "internalType": "address",
          "name": "roller",
          "type": "address"
        }
      ],
      "name": "BossAttacked",
      "type": "event"
    },
    {
      "anonymous": false,
      "inputs": [
        {
          "indexed": false,
          "internalType": "address",
          "name": "sender",
          "type": "address"
        },
        {
          "indexed": false,
          "internalType": "uint256",
          "name": "tokenId",
          "type": "uint256"
        },
        {
          "indexed": false,
          "internalType": "uint256",
          "name": "characterIndex",
          "type": "uint256"
        }
      ],
      "name": "CharacterNFTMinted",
      "type": "event"
    },
    {
      "anonymous": false,
      "inputs": [
        {
          "indexed": true,
          "internalType": "address",
          "name": "previousOwner",
          "type": "address"
        },
        {
          "indexed": true,
          "internalType": "address",
          "name": "newOwner",
          "type": "address"
        }
      ],
      "name": "OwnershipTransferred",
      "type": "event"
    },
    {
      "anonymous": false,
      "inputs": [
        {
          "indexed": true,
          "internalType": "address",
          "name": "from",
          "type": "address"
        },
        {
          "indexed": true,
          "internalType": "address",
          "name": "to",
          "type": "address"
        },
        {
          "indexed": true,
          "internalType": "uint256",
          "name": "tokenId",
          "type": "uint256"
        }
      ],
      "name": "Transfer",
      "type": "event"
    },
    {
      "inputs": [
        {
          "internalType": "address",
          "name": "to",
          "type": "address"
        },
        {
          "internalType": "uint256",
          "name": "tokenId",
          "type": "uint256"
        }
      ],
      "name": "approve",
      "outputs": [],
      "stateMutability": "nonpayable",
      "type": "function"
    },
    {
      "inputs": [],
      "name": "attackBoss",
      "outputs": [
        {
          "internalType": "bytes32",
          "name": "requestId",
          "type": "bytes32"
        }
      ],
      "stateMutability": "nonpayable",
      "type": "function"
    },
    {
      "inputs": [
        {
          "internalType": "address",
          "name": "owner",
          "type": "address"
        }
      ],
      "name": "balanceOf",
      "outputs": [
        {
          "internalType": "uint256",
          "name": "",
          "type": "uint256"
        }
      ],
      "stateMutability": "view",
      "type": "function"
    },
    {
      "inputs": [],
      "name": "bigBoss",
      "outputs": [
        {
          "internalType": "string",
          "name": "name",
          "type": "string"
        },
        {
          "internalType": "string",
          "name": "imageURI",
          "type": "string"
        },
        {
          "internalType": "uint256",
          "name": "hp",
          "type": "uint256"
        },
        {
          "internalType": "uint256",
          "name": "maxHp",
          "type": "uint256"
        },
        {
          "internalType": "uint256",
          "name": "attackDamage",
          "type": "uint256"
        }
      ],
      "stateMutability": "view",
      "type": "function"
    },
    {
      "inputs": [],
      "name": "checkIfUserHasNFT",
      "outputs": [
        {
          "components": [
            {
              "internalType": "uint256",
              "name": "characterIndex",
              "type": "uint256"
            },
            {
              "internalType": "string",
              "name": "name",
              "type": "string"
            },
            {
              "internalType": "string",
              "name": "imageURI",
              "type": "string"
            },
            {
              "internalType": "uint256",
              "name": "hp",
              "type": "uint256"
            },
            {
              "internalType": "uint256",
              "name": "maxHp",
              "type": "uint256"
            },
            {
              "internalType": "uint256",
              "name": "attackDamage",
              "type": "uint256"
            },
            {
              "internalType": "uint256",
              "name": "critChance",
              "type": "uint256"
            }
          ],
          "internalType": "struct MyEpicGame.CharacterAttributes",
          "name": "",
          "type": "tuple"
        }
      ],
      "stateMutability": "view",
      "type": "function"
    },
    {
      "inputs": [],
      "name": "getAllDefaultCharacters",
      "outputs": [
        {
          "components": [
            {
              "internalType": "uint256",
              "name": "characterIndex",
              "type": "uint256"
            },
            {
              "internalType": "string",
              "name": "name",
              "type": "string"
            },
            {
              "internalType": "string",
              "name": "imageURI",
              "type": "string"
            },
            {
              "internalType": "uint256",
              "name": "hp",
              "type": "uint256"
            },
            {
              "internalType": "uint256",
              "name": "maxHp",
              "type": "uint256"
            },
            {
              "internalType": "uint256",
              "name": "attackDamage",
              "type": "uint256"
            },
            {
              "internalType": "uint256",
              "name": "critChance",
              "type": "uint256"
            }
          ],
          "internalType": "struct MyEpicGame.CharacterAttributes[]",
          "name": "",
          "type": "tuple[]"
        }
      ],
      "stateMutability": "view",
      "type": "function"
    },
    {
      "inputs": [
        {
          "internalType": "uint256",
          "name": "tokenId",
          "type": "uint256"
        }
      ],
      "name": "getApproved",
      "outputs": [
        {
          "internalType": "address",
          "name": "",
          "type": "address"
        }
      ],
      "stateMutability": "view",
      "type": "function"
    },
    {
      "inputs": [],
      "name": "getBigBoss",
      "outputs": [
        {
          "components": [
            {
              "internalType": "string",
              "name": "name",
              "type": "string"
            },
            {
              "internalType": "string",
              "name": "imageURI",
              "type": "string"
            },
            {
              "internalType": "uint256",
              "name": "hp",
              "type": "uint256"
            },
            {
              "internalType": "uint256",
              "name": "maxHp",
              "type": "uint256"
            },
            {
              "internalType": "uint256",
              "name": "attackDamage",
              "type": "uint256"
            }
          ],
          "internalType": "struct MyEpicGame.BigBoss",
          "name": "",
          "type": "tuple"
        }
      ],
      "stateMutability": "view",
      "type": "function"
    },
    {
      "inputs": [],
      "name": "getCritRoll",
      "outputs": [
        {
          "internalType": "uint256",
          "name": "",
          "type": "uint256"
        }
      ],
      "stateMutability": "view",
      "type": "function"
    },
    {
      "inputs": [
        {
          "internalType": "address",
          "name": "owner",
          "type": "address"
        },
        {
          "internalType": "address",
          "name": "operator",
          "type": "address"
        }
      ],
      "name": "isApprovedForAll",
      "outputs": [
        {
          "internalType": "bool",
          "name": "",
          "type": "bool"
        }
      ],
      "stateMutability": "view",
      "type": "function"
    },
    {
      "inputs": [
        {
          "internalType": "uint256",
          "name": "_characterIndex",
          "type": "uint256"
        }
      ],
      "name": "mintCharacterNFT",
      "outputs": [],
      "stateMutability": "nonpayable",
      "type": "function"
    },
    {
      "inputs": [],
      "name": "name",
      "outputs": [
        {
          "internalType": "string",
          "name": "",
          "type": "string"
        }
      ],
      "stateMutability": "view",
      "type": "function"
    },
    {
      "inputs": [
        {
          "internalType": "uint256",
          "name": "",
          "type": "uint256"
        }
      ],
      "name": "nftHolderAttributes",
      "outputs": [
        {
          "internalType": "uint256",
          "name": "characterIndex",
          "type": "uint256"
        },
        {
          "internalType": "string",
          "name": "name",
          "type": "string"
        },
        {
          "internalType": "string",
          "name": "imageURI",
          "type": "string"
        },
        {
          "internalType": "uint256",
          "name": "hp",
          "type": "uint256"
        },
        {
          "internalType": "uint256",
          "name": "maxHp",
          "type": "uint256"
        },
        {
          "internalType": "uint256",
          "name": "attackDamage",
          "type": "uint256"
        },
        {
          "internalType": "uint256",
          "name": "critChance",
          "type": "uint256"
        }
      ],
      "stateMutability": "view",
      "type": "function"
    },
    {
      "inputs": [
        {
          "internalType": "address",
          "name": "",
          "type": "address"
        }
      ],
      "name": "nftHolders",
      "outputs": [
        {
          "internalType": "uint256",
          "name": "",
          "type": "uint256"
        }
      ],
      "stateMutability": "view",
      "type": "function"
    },
    {
      "inputs": [],
      "name": "owner",
      "outputs": [
        {
          "internalType": "address",
          "name": "",
          "type": "address"
        }
      ],
      "stateMutability": "view",
      "type": "function"
    },
    {
      "inputs": [
        {
          "internalType": "uint256",
          "name": "tokenId",
          "type": "uint256"
        }
      ],
      "name": "ownerOf",
      "outputs": [
        {
          "internalType": "address",
          "name": "",
          "type": "address"
        }
      ],
      "stateMutability": "view",
      "type": "function"
    },
    {
      "inputs": [
        {
          "internalType": "bytes32",
          "name": "requestId",
          "type": "bytes32"
        },
        {
          "internalType": "uint256",
          "name": "randomness",
          "type": "uint256"
        }
      ],
      "name": "rawFulfillRandomness",
      "outputs": [],
      "stateMutability": "nonpayable",
      "type": "function"
    },
    {
      "inputs": [],
      "name": "renounceOwnership",
      "outputs": [],
      "stateMutability": "nonpayable",
      "type": "function"
    },
    {
      "inputs": [
        {
          "internalType": "address",
          "name": "",
          "type": "address"
        }
      ],
      "name": "s_results",
      "outputs": [
        {
          "internalType": "uint256",
          "name": "",
          "type": "uint256"
        }
      ],
      "stateMutability": "view",
      "type": "function"
    },
    {
      "inputs": [
        {
          "internalType": "bytes32",
          "name": "",
          "type": "bytes32"
        }
      ],
      "name": "s_rollers",
      "outputs": [
        {
          "internalType": "address",
          "name": "",
          "type": "address"
        }
      ],
      "stateMutability": "view",
      "type": "function"
    },
    {
      "inputs": [
        {
          "internalType": "address",
          "name": "from",
          "type": "address"
        },
        {
          "internalType": "address",
          "name": "to",
          "type": "address"
        },
        {
          "internalType": "uint256",
          "name": "tokenId",
          "type": "uint256"
        }
      ],
      "name": "safeTransferFrom",
      "outputs": [],
      "stateMutability": "nonpayable",
      "type": "function"
    },
    {
      "inputs": [
        {
          "internalType": "address",
          "name": "from",
          "type": "address"
        },
        {
          "internalType": "address",
          "name": "to",
          "type": "address"
        },
        {
          "internalType": "uint256",
          "name": "tokenId",
          "type": "uint256"
        },
        {
          "internalType": "bytes",
          "name": "_data",
          "type": "bytes"
        }
      ],
      "name": "safeTransferFrom",
      "outputs": [],
      "stateMutability": "nonpayable",
      "type": "function"
    },
    {
      "inputs": [
        {
          "internalType": "address",
          "name": "operator",
          "type": "address"
        },
        {
          "internalType": "bool",
          "name": "approved",
          "type": "bool"
        }
      ],
      "name": "setApprovalForAll",
      "outputs": [],
      "stateMutability": "nonpayable",
      "type": "function"
    },
    {
      "inputs": [
        {
          "internalType": "bytes4",
          "name": "interfaceId",
          "type": "bytes4"
        }
      ],
      "name": "supportsInterface",
      "outputs": [
        {
          "internalType": "bool",
          "name": "",
          "type": "bool"
        }
      ],
      "stateMutability": "view",
      "type": "function"
    },
    {
      "inputs": [],
      "name": "symbol",
      "outputs": [
        {
          "internalType": "string",
          "name": "",
          "type": "string"
        }
      ],
      "stateMutability": "view",
      "type": "function"
    },
    {
      "inputs": [
        {
          "internalType": "uint256",
          "name": "_tokenId",
          "type": "uint256"
        }
      ],
      "name": "tokenURI",
      "outputs": [
        {
          "internalType": "string",
          "name": "",
          "type": "string"
        }
      ],
      "stateMutability": "view",
      "type": "function"
    },
    {
      "inputs": [
        {
          "internalType": "address",
          "name": "from",
          "type": "address"
        },
        {
          "internalType": "address",
          "name": "to",
          "type": "address"
        },
        {
          "internalType": "uint256",
          "name": "tokenId",
          "type": "uint256"
        }
      ],
      "name": "transferFrom",
      "outputs": [],
      "stateMutability": "nonpayable",
      "type": "function"
    },
    {
      "inputs": [
        {
          "internalType": "address",
          "name": "newOwner",
          "type": "address"
        }
      ],
      "name": "transferOwnership",
      "outputs": [],
      "stateMutability": "nonpayable",
      "type": "function"
    },
    {
      "inputs": [],
      "name": "withdrawLink",
      "outputs": [],
      "stateMutability": "nonpayable",
      "type": "function"
    }
  ],
  "bytecode": "0x60c06040523480156200001157600080fd5b5060405162006cb438038062006cb4833981810160405281019062000037919062000c77565b73b3dccb4cf7a26f6cf6b120cf5a73875b7bbc655b7301be23585060835e02b77ef475b0cc51aa1e07096040518060400160405280600681526020017f4865726f657300000000000000000000000000000000000000000000000000008152506040518060400160405280600481526020017f4845524f000000000000000000000000000000000000000000000000000000008152508160009080519060200190620000e592919062000a0a565b508060019080519060200190620000fe92919062000a0a565b5050508173ffffffffffffffffffffffffffffffffffffffff1660a08173ffffffffffffffffffffffffffffffffffffffff1660601b815250508073ffffffffffffffffffffffffffffffffffffffff1660808173ffffffffffffffffffffffffffffffffffffffff1660601b81525050505062000191620001856200085160201b60201c565b6200085960201b60201c565b7f2ed0feb3e7fd2022120aa84fab1945545a9f2ffc9076fd6156fa96eaff4c131160001b60088190555067016345785d8a00006009819055506040518060a0016040528085815260200184815260200183815260200183815260200182815250600f60008201518160000190805190602001906200021192919062000a0a565b5060208201518160010190805190602001906200023092919062000a0a565b50604082015181600201556060820151816003015560808201518160040155905050620003b36040518060600160405280602a815260200162006c8a602a9139600f6000018054620002829062001031565b80601f0160208091040260200160405190810160405280929190818152602001828054620002b09062001031565b8015620003015780601f10620002d55761010080835404028352916020019162000301565b820191906000526020600020905b815481529060010190602001808311620002e357829003601f168201915b5050505050600f60020154600f60010180546200031e9062001031565b80601f01602080910402602001604051908101604052809291908181526020018280546200034c9062001031565b80156200039d5780601f1062000371576101008083540402835291602001916200039d565b820191906000526020600020905b8154815290600101906020018083116200037f57829003601f168201915b50505050506200091f60201b6200254f1760201c565b60005b89518110156200082a57600d6040518060e001604052808381526020018c84815181106200040d577f4e487b7100000000000000000000000000000000000000000000000000000000600052603260045260246000fd5b602002602001015181526020018b848151811062000454577f4e487b7100000000000000000000000000000000000000000000000000000000600052603260045260246000fd5b602002602001015181526020018a84815181106200049b577f4e487b7100000000000000000000000000000000000000000000000000000000600052603260045260246000fd5b602002602001015181526020018a8481518110620004e2577f4e487b7100000000000000000000000000000000000000000000000000000000600052603260045260246000fd5b6020026020010151815260200189848151811062000529577f4e487b7100000000000000000000000000000000000000000000000000000000600052603260045260246000fd5b6020026020010151815260200188848151811062000570577f4e487b7100000000000000000000000000000000000000000000000000000000600052603260045260246000fd5b60200260200101518152509080600181540180825580915050600190039060005260206000209060070201600090919091909150600082015181600001556020820151816001019080519060200190620005cc92919062000a0a565b506040820151816002019080519060200190620005eb92919062000a0a565b50606082015181600301556080820151816004015560a0820151816005015560c0820151816006015550506000600d828154811062000653577f4e487b7100000000000000000000000000000000000000000000000000000000600052603260045260246000fd5b90600052602060002090600702016040518060e001604052908160008201548152602001600182018054620006889062001031565b80601f0160208091040260200160405190810160405280929190818152602001828054620006b69062001031565b8015620007075780601f10620006db5761010080835404028352916020019162000707565b820191906000526020600020905b815481529060010190602001808311620006e957829003601f168201915b50505050508152602001600282018054620007229062001031565b80601f0160208091040260200160405190810160405280929190818152602001828054620007509062001031565b8015620007a15780601f106200077557610100808354040283529160200191620007a1565b820191906000526020600020905b8154815290600101906020018083116200078357829003601f168201915b5050505050815260200160038201548152602001600482015481526020016005820154815260200160068201548152505090506200081260405180606001604052806025815260200162006c65602591398260200151836060015184604001516200091f60201b6200254f1760201c565b5060018162000822919062000f94565b9050620003b6565b5062000842600c620009cb60201b620025f11760201c565b5050505050505050506200111f565b600033905090565b6000600760009054906101000a900473ffffffffffffffffffffffffffffffffffffffff16905081600760006101000a81548173ffffffffffffffffffffffffffffffffffffffff021916908373ffffffffffffffffffffffffffffffffffffffff1602179055508173ffffffffffffffffffffffffffffffffffffffff168173ffffffffffffffffffffffffffffffffffffffff167f8be0079c531659141344cd1fd0a4f28419497f9722a3daafe3b4186f6b6457e060405160405180910390a35050565b620009c5848484846040516024016200093c949392919062000e51565b6040516020818303038152906040527f8d142cdd000000000000000000000000000000000000000000000000000000007bffffffffffffffffffffffffffffffffffffffffffffffffffffffff19166020820180517bffffffffffffffffffffffffffffffffffffffffffffffffffffffff8381831617835250505050620009e160201b60201c565b50505050565b6001816000016000828254019250508190555050565b60008151905060006a636f6e736f6c652e6c6f679050602083016000808483855afa5050505050565b82805462000a189062001031565b90600052602060002090601f01602090048101928262000a3c576000855562000a88565b82601f1062000a5757805160ff191683800117855562000a88565b8280016001018555821562000a88579182015b8281111562000a8757825182559160200191906001019062000a6a565b5b50905062000a97919062000a9b565b5090565b5b8082111562000ab657600081600090555060010162000a9c565b5090565b600062000ad162000acb8462000ee7565b62000eb3565b9050808382526020820190508260005b8581101562000b15578151850162000afa888262000c33565b84526020840193506020830192505060018101905062000ae1565b5050509392505050565b600062000b3662000b308462000f16565b62000eb3565b9050808382526020820190508285602086028201111562000b5657600080fd5b60005b8581101562000b8a578162000b6f888262000c60565b84526020840193506020830192505060018101905062000b59565b5050509392505050565b600062000bab62000ba58462000f45565b62000eb3565b90508281526020810184848401111562000bc457600080fd5b62000bd184828562000ffb565b509392505050565b600082601f83011262000beb57600080fd5b815162000bfd84826020860162000aba565b91505092915050565b600082601f83011262000c1857600080fd5b815162000c2a84826020860162000b1f565b91505092915050565b600082601f83011262000c4557600080fd5b815162000c5784826020860162000b94565b91505092915050565b60008151905062000c718162001105565b92915050565b60008060008060008060008060006101208a8c03121562000c9757600080fd5b60008a015167ffffffffffffffff81111562000cb257600080fd5b62000cc08c828d0162000bd9565b99505060208a015167ffffffffffffffff81111562000cde57600080fd5b62000cec8c828d0162000bd9565b98505060408a015167ffffffffffffffff81111562000d0a57600080fd5b62000d188c828d0162000c06565b97505060608a015167ffffffffffffffff81111562000d3657600080fd5b62000d448c828d0162000c06565b96505060808a015167ffffffffffffffff81111562000d6257600080fd5b62000d708c828d0162000c06565b95505060a08a015167ffffffffffffffff81111562000d8e57600080fd5b62000d9c8c828d0162000c33565b94505060c08a015167ffffffffffffffff81111562000dba57600080fd5b62000dc88c828d0162000c33565b93505060e062000ddb8c828d0162000c60565b92505061010062000def8c828d0162000c60565b9150509295985092959850929598565b600062000e0c8262000f78565b62000e18818562000f83565b935062000e2a81856020860162000ffb565b62000e3581620010f4565b840191505092915050565b62000e4b8162000ff1565b82525050565b6000608082019050818103600083015262000e6d818762000dff565b9050818103602083015262000e83818662000dff565b905062000e94604083018562000e40565b818103606083015262000ea8818462000dff565b905095945050505050565b6000604051905081810181811067ffffffffffffffff8211171562000edd5762000edc620010c5565b5b8060405250919050565b600067ffffffffffffffff82111562000f055762000f04620010c5565b5b602082029050602081019050919050565b600067ffffffffffffffff82111562000f345762000f33620010c5565b5b602082029050602081019050919050565b600067ffffffffffffffff82111562000f635762000f62620010c5565b5b601f19601f8301169050602081019050919050565b600081519050919050565b600082825260208201905092915050565b600062000fa18262000ff1565b915062000fae8362000ff1565b9250827fffffffffffffffffffffffffffffffffffffffffffffffffffffffffffffffff0382111562000fe65762000fe562001067565b5b828201905092915050565b6000819050919050565b60005b838110156200101b57808201518184015260208101905062000ffe565b838111156200102b576000848401525b50505050565b600060028204905060018216806200104a57607f821691505b6020821081141562001061576200106062001096565b5b50919050565b7f4e487b7100000000000000000000000000000000000000000000000000000000600052601160045260246000fd5b7f4e487b7100000000000000000000000000000000000000000000000000000000600052602260045260246000fd5b7f4e487b7100000000000000000000000000000000000000000000000000000000600052604160045260246000fd5b6000601f19601f8301169050919050565b620011108162000ff1565b81146200111c57600080fd5b50565b60805160601c60a05160601c615b0c6200115960003960008181610ddb01526132bc015260008181611d7b01526132800152615b0c6000f3fe608060405234801561001057600080fd5b50600436106101cf5760003560e01c806394985ddd11610104578063c107def2116100a2578063d4f24c5b11610071578063d4f24c5b1461053a578063e985e9c514610558578063f2fde38b14610588578063f8b81ef7146105a4576101cf565b8063c107def21461049e578063c4c97c4e146104bc578063c87b56dd146104ec578063c8cf27f41461051c576101cf565b8063a22cb465116100de578063a22cb46514610426578063a9c3267914610442578063b88d4fde14610464578063b953084e14610480576101cf565b806394985ddd146103b657806395d89b41146103d257806398da4c95146103f0576101cf565b806355a573f311610171578063715018a61161014b578063715018a6146103545780637df124a11461035e5780638da5cb5b1461038e5780638dc654a2146103ac576101cf565b806355a573f3146102c45780636352211e146102f457806370a0823114610324576101cf565b8063081812fc116101ad578063081812fc14610240578063095ea7b31461027057806323b872dd1461028c57806342842e0e146102a8576101cf565b806301ffc9a7146101d45780630665f9611461020457806306fdde0314610222575b600080fd5b6101ee60048036038101906101e99190613ea2565b6105c0565b6040516101fb9190614f28565b60405180910390f35b61020c6106a2565b60405161021991906153ea565b60405180910390f35b61022a6107fe565b6040516102379190614fcc565b60405180910390f35b61025a60048036038101906102559190613ef4565b610890565b6040516102679190614e2a565b60405180910390f35b61028a60048036038101906102859190613dd8565b610915565b005b6102a660048036038101906102a19190613cd2565b610a2d565b005b6102c260048036038101906102bd9190613cd2565b610a8d565b005b6102de60048036038101906102d99190613e3d565b610aad565b6040516102eb9190614e2a565b60405180910390f35b61030e60048036038101906103099190613ef4565b610ae0565b60405161031b9190614e2a565b60405180910390f35b61033e60048036038101906103399190613c6d565b610b92565b60405161034b919061542e565b60405180910390f35b61035c610c4a565b005b61037860048036038101906103739190613c6d565b610cd2565b604051610385919061542e565b60405180910390f35b610396610cea565b6040516103a39190614e2a565b60405180910390f35b6103b4610d14565b005b6103d060048036038101906103cb9190613e66565b610dd9565b005b6103da610e75565b6040516103e79190614fcc565b60405180910390f35b61040a60048036038101906104059190613ef4565b610f07565b60405161041d9796959493929190615449565b60405180910390f35b610440600480360381019061043b9190613d9c565b611059565b005b61044a6111da565b60405161045b95949392919061509b565b60405180910390f35b61047e60048036038101906104799190613d21565b61130e565b005b610488611370565b6040516104959190614f06565b60405180910390f35b6104a6611525565b6040516104b3919061542e565b60405180910390f35b6104d660048036038101906104d19190613c6d565b61156c565b6040516104e3919061542e565b60405180910390f35b61050660048036038101906105019190613ef4565b611584565b6040516105139190614fcc565b60405180910390f35b6105246117bd565b604051610531919061540c565b60405180910390f35b61054261199f565b60405161054f9190614f43565b60405180910390f35b610572600480360381019061056d9190613c96565b611f74565b60405161057f9190614f28565b60405180910390f35b6105a2600480360381019061059d9190613c6d565b612008565b005b6105be60048036038101906105b99190613ef4565b612100565b005b60007f80ac58cd000000000000000000000000000000000000000000000000000000007bffffffffffffffffffffffffffffffffffffffffffffffffffffffff1916827bffffffffffffffffffffffffffffffffffffffffffffffffffffffff1916148061068b57507f5b5e139f000000000000000000000000000000000000000000000000000000007bffffffffffffffffffffffffffffffffffffffffffffffffffffffff1916827bffffffffffffffffffffffffffffffffffffffffffffffffffffffff1916145b8061069b575061069a82612607565b5b9050919050565b6106aa613a4e565b600f6040518060a00160405290816000820180546106c7906157b2565b80601f01602080910402602001604051908101604052809291908181526020018280546106f3906157b2565b80156107405780601f1061071557610100808354040283529160200191610740565b820191906000526020600020905b81548152906001019060200180831161072357829003601f168201915b50505050508152602001600182018054610759906157b2565b80601f0160208091040260200160405190810160405280929190818152602001828054610785906157b2565b80156107d25780601f106107a7576101008083540402835291602001916107d2565b820191906000526020600020905b8154815290600101906020018083116107b557829003601f168201915b505050505081526020016002820154815260200160038201548152602001600482015481525050905090565b60606000805461080d906157b2565b80601f0160208091040260200160405190810160405280929190818152602001828054610839906157b2565b80156108865780601f1061085b57610100808354040283529160200191610886565b820191906000526020600020905b81548152906001019060200180831161086957829003601f168201915b5050505050905090565b600061089b82612671565b6108da576040517f08c379a00000000000000000000000000000000000000000000000000000000081526004016108d19061532a565b60405180910390fd5b6004600083815260200190815260200160002060009054906101000a900473ffffffffffffffffffffffffffffffffffffffff169050919050565b600061092082610ae0565b90508073ffffffffffffffffffffffffffffffffffffffff168373ffffffffffffffffffffffffffffffffffffffff161415610991576040517f08c379a0000000000000000000000000000000000000000000000000000000008152600401610988906153aa565b60405180910390fd5b8073ffffffffffffffffffffffffffffffffffffffff166109b06126dd565b73ffffffffffffffffffffffffffffffffffffffff1614806109df57506109de816109d96126dd565b611f74565b5b610a1e576040517f08c379a0000000000000000000000000000000000000000000000000000000008152600401610a159061524a565b60405180910390fd5b610a2883836126e5565b505050565b610a3e610a386126dd565b8261279e565b610a7d576040517f08c379a0000000000000000000000000000000000000000000000000000000008152600401610a74906153ca565b60405180910390fd5b610a8883838361287c565b505050565b610aa88383836040518060200160405280600081525061130e565b505050565b600a6020528060005260406000206000915054906101000a900473ffffffffffffffffffffffffffffffffffffffff1681565b6000806002600084815260200190815260200160002060009054906101000a900473ffffffffffffffffffffffffffffffffffffffff169050600073ffffffffffffffffffffffffffffffffffffffff168173ffffffffffffffffffffffffffffffffffffffff161415610b89576040517f08c379a0000000000000000000000000000000000000000000000000000000008152600401610b809061528a565b60405180910390fd5b80915050919050565b60008073ffffffffffffffffffffffffffffffffffffffff168273ffffffffffffffffffffffffffffffffffffffff161415610c03576040517f08c379a0000000000000000000000000000000000000000000000000000000008152600401610bfa9061526a565b60405180910390fd5b600360008373ffffffffffffffffffffffffffffffffffffffff1673ffffffffffffffffffffffffffffffffffffffff168152602001908152602001600020549050919050565b610c526126dd565b73ffffffffffffffffffffffffffffffffffffffff16610c70610cea565b73ffffffffffffffffffffffffffffffffffffffff1614610cc6576040517f08c379a0000000000000000000000000000000000000000000000000000000008152600401610cbd9061534a565b60405180910390fd5b610cd06000612ad8565b565b60146020528060005260406000206000915090505481565b6000600760009054906101000a900473ffffffffffffffffffffffffffffffffffffffff16905090565b610d1c6126dd565b73ffffffffffffffffffffffffffffffffffffffff16610d3a610cea565b73ffffffffffffffffffffffffffffffffffffffff1614610d90576040517f08c379a0000000000000000000000000000000000000000000000000000000008152600401610d879061534a565b60405180910390fd5b3373ffffffffffffffffffffffffffffffffffffffff166108fc479081150290604051600060405180830381858888f19350505050158015610dd6573d6000803e3d6000fd5b50565b7f000000000000000000000000000000000000000000000000000000000000000073ffffffffffffffffffffffffffffffffffffffff163373ffffffffffffffffffffffffffffffffffffffff1614610e67576040517f08c379a0000000000000000000000000000000000000000000000000000000008152600401610e5e9061538a565b60405180910390fd5b610e718282612b9e565b5050565b606060018054610e84906157b2565b80601f0160208091040260200160405190810160405280929190818152602001828054610eb0906157b2565b8015610efd5780601f10610ed257610100808354040283529160200191610efd565b820191906000526020600020905b815481529060010190602001808311610ee057829003601f168201915b5050505050905090565b600e602052806000526040600020600091509050806000015490806001018054610f30906157b2565b80601f0160208091040260200160405190810160405280929190818152602001828054610f5c906157b2565b8015610fa95780601f10610f7e57610100808354040283529160200191610fa9565b820191906000526020600020905b815481529060010190602001808311610f8c57829003601f168201915b505050505090806002018054610fbe906157b2565b80601f0160208091040260200160405190810160405280929190818152602001828054610fea906157b2565b80156110375780601f1061100c57610100808354040283529160200191611037565b820191906000526020600020905b81548152906001019060200180831161101a57829003601f168201915b5050505050908060030154908060040154908060050154908060060154905087565b6110616126dd565b73ffffffffffffffffffffffffffffffffffffffff168273ffffffffffffffffffffffffffffffffffffffff1614156110cf576040517f08c379a00000000000000000000000000000000000000000000000000000000081526004016110c69061520a565b60405180910390fd5b80600560006110dc6126dd565b73ffffffffffffffffffffffffffffffffffffffff1673ffffffffffffffffffffffffffffffffffffffff16815260200190815260200160002060008473ffffffffffffffffffffffffffffffffffffffff1673ffffffffffffffffffffffffffffffffffffffff16815260200190815260200160002060006101000a81548160ff0219169083151502179055508173ffffffffffffffffffffffffffffffffffffffff166111896126dd565b73ffffffffffffffffffffffffffffffffffffffff167f17307eab39ab6107e8899845ad3d59bd9653f200f220920489ca2b5937696c31836040516111ce9190614f28565b60405180910390a35050565b600f8060000180546111eb906157b2565b80601f0160208091040260200160405190810160405280929190818152602001828054611217906157b2565b80156112645780601f1061123957610100808354040283529160200191611264565b820191906000526020600020905b81548152906001019060200180831161124757829003601f168201915b505050505090806001018054611279906157b2565b80601f01602080910402602001604051908101604052809291908181526020018280546112a5906157b2565b80156112f25780601f106112c7576101008083540402835291602001916112f2565b820191906000526020600020905b8154815290600101906020018083116112d557829003601f168201915b5050505050908060020154908060030154908060040154905085565b61131f6113196126dd565b8361279e565b61135e576040517f08c379a0000000000000000000000000000000000000000000000000000000008152600401611355906153ca565b60405180910390fd5b61136a84848484612e13565b50505050565b6060600d805480602002602001604051908101604052809291908181526020016000905b8282101561151c57838290600052602060002090600702016040518060e0016040529081600082015481526020016001820180546113d1906157b2565b80601f01602080910402602001604051908101604052809291908181526020018280546113fd906157b2565b801561144a5780601f1061141f5761010080835404028352916020019161144a565b820191906000526020600020905b81548152906001019060200180831161142d57829003601f168201915b50505050508152602001600282018054611463906157b2565b80601f016020809104026020016040519081016040528092919081815260200182805461148f906157b2565b80156114dc5780601f106114b1576101008083540402835291602001916114dc565b820191906000526020600020905b8154815290600101906020018083116114bf57829003601f168201915b5050505050815260200160038201548152602001600482015481526020016005820154815260200160068201548152505081526020019060010190611394565b50505050905090565b6000600b60003373ffffffffffffffffffffffffffffffffffffffff1673ffffffffffffffffffffffffffffffffffffffff16815260200190815260200160002054905090565b600b6020528060005260406000206000915090505481565b60606000600e60008481526020019081526020016000206040518060e0016040529081600082015481526020016001820180546115c0906157b2565b80601f01602080910402602001604051908101604052809291908181526020018280546115ec906157b2565b80156116395780601f1061160e57610100808354040283529160200191611639565b820191906000526020600020905b81548152906001019060200180831161161c57829003601f168201915b50505050508152602001600282018054611652906157b2565b80601f016020809104026020016040519081016040528092919081815260200182805461167e906157b2565b80156116cb5780601f106116a0576101008083540402835291602001916116cb565b820191906000526020600020905b8154815290600101906020018083116116ae57829003601f168201915b505050505081526020016003820154815260200160048201548152602001600582015481526020016006820154815250509050600061170d8260600151612e6f565b9050600061171e8360800151612e6f565b9050600061172f8460a00151612e6f565b905060006117408560c00151612e6f565b9050600061178886602001516117558a612e6f565b8860400151888888886040516020016117749796959493929190614d4b565b60405160208183030381529060405261301c565b905060008160405160200161179d9190614e08565b604051602081830303815290604052905080975050505050505050919050565b6117c5613a7d565b6000601460003373ffffffffffffffffffffffffffffffffffffffff1673ffffffffffffffffffffffffffffffffffffffff168152602001908152602001600020549050600081111561198e57600e60008281526020019081526020016000206040518060e00160405290816000820154815260200160018201805461184a906157b2565b80601f0160208091040260200160405190810160405280929190818152602001828054611876906157b2565b80156118c35780601f10611898576101008083540402835291602001916118c3565b820191906000526020600020905b8154815290600101906020018083116118a657829003601f168201915b505050505081526020016002820180546118dc906157b2565b80601f0160208091040260200160405190810160405280929190818152602001828054611908906157b2565b80156119555780601f1061192a57610100808354040283529160200191611955565b820191906000526020600020905b81548152906001019060200180831161193857829003601f168201915b5050505050815260200160038201548152602001600482015481526020016005820154815260200160068201548152505091505061199c565b611996613a7d565b80925050505b90565b600080601460003373ffffffffffffffffffffffffffffffffffffffff1673ffffffffffffffffffffffffffffffffffffffff1681526020019081526020016000205490506000600e60008381526020019081526020016000206040518060e001604052908160008201548152602001600182018054611a1e906157b2565b80601f0160208091040260200160405190810160405280929190818152602001828054611a4a906157b2565b8015611a975780601f10611a6c57610100808354040283529160200191611a97565b820191906000526020600020905b815481529060010190602001808311611a7a57829003601f168201915b50505050508152602001600282018054611ab0906157b2565b80601f0160208091040260200160405190810160405280929190818152602001828054611adc906157b2565b8015611b295780601f10611afe57610100808354040283529160200191611b29565b820191906000526020600020905b815481529060010190602001808311611b0c57829003601f168201915b505050505081526020016003820154815260200160048201548152602001600582015481526020016006820154815250509050611b8c6040518060600160405280603c8152602001615a9b603c9139826020015183606001518460a001516131da565b611c646040518060400160405280601b81526020017f426f73732025732068617320257320485020616e642025732041440000000000815250600f6000018054611bd5906157b2565b80601f0160208091040260200160405190810160405280929190818152602001828054611c01906157b2565b8015611c4e5780601f10611c2357610100808354040283529160200191611c4e565b820191906000526020600020905b815481529060010190602001808311611c3157829003601f168201915b5050505050600f60020154600f600401546131da565b6000816060015111611cab576040517f08c379a0000000000000000000000000000000000000000000000000000000008152600401611ca2906152ea565b60405180910390fd5b6000600f6002015411611cf3576040517f08c379a0000000000000000000000000000000000000000000000000000000008152600401611cea906151aa565b60405180910390fd5b606a600b60003373ffffffffffffffffffffffffffffffffffffffff1673ffffffffffffffffffffffffffffffffffffffff168152602001908152602001600020541415611d76576040517f08c379a0000000000000000000000000000000000000000000000000000000008152600401611d6d906152aa565b60405180910390fd5b6009547f000000000000000000000000000000000000000000000000000000000000000073ffffffffffffffffffffffffffffffffffffffff166370a08231306040518263ffffffff1660e01b8152600401611dd29190614e2a565b60206040518083038186803b158015611dea57600080fd5b505afa158015611dfe573d6000803e3d6000fd5b505050506040513d601f19601f82011682018060405250810190611e229190613f1d565b1015611e63576040517f08c379a0000000000000000000000000000000000000000000000000000000008152600401611e5a906152ca565b60405180910390fd5b611e7160085460095461327c565b925033600a600085815260200190815260200160002060006101000a81548173ffffffffffffffffffffffffffffffffffffffff021916908373ffffffffffffffffffffffffffffffffffffffff160217905550606a600b60003373ffffffffffffffffffffffffffffffffffffffff1673ffffffffffffffffffffffffffffffffffffffff16815260200190815260200160002081905550611f2b6040518060600160405280602e81526020016159b3602e91396133de565b3373ffffffffffffffffffffffffffffffffffffffff16837fd15ca1b67b427144d687f33376296941bfbfa32f051faf36776b0682093ab14d60405160405180910390a3505090565b6000600560008473ffffffffffffffffffffffffffffffffffffffff1673ffffffffffffffffffffffffffffffffffffffff16815260200190815260200160002060008373ffffffffffffffffffffffffffffffffffffffff1673ffffffffffffffffffffffffffffffffffffffff16815260200190815260200160002060009054906101000a900460ff16905092915050565b6120106126dd565b73ffffffffffffffffffffffffffffffffffffffff1661202e610cea565b73ffffffffffffffffffffffffffffffffffffffff1614612084576040517f08c379a000000000000000000000000000000000000000000000000000000000815260040161207b9061534a565b60405180910390fd5b600073ffffffffffffffffffffffffffffffffffffffff168173ffffffffffffffffffffffffffffffffffffffff1614156120f4576040517f08c379a00000000000000000000000000000000000000000000000000000000081526004016120eb9061518a565b60405180910390fd5b6120fd81612ad8565b50565b600061210c600c613477565b90506121183382613485565b6040518060e00160405280838152602001600d8481548110612163577f4e487b7100000000000000000000000000000000000000000000000000000000600052603260045260246000fd5b9060005260206000209060070201600101805461217f906157b2565b80601f01602080910402602001604051908101604052809291908181526020018280546121ab906157b2565b80156121f85780601f106121cd576101008083540402835291602001916121f8565b820191906000526020600020905b8154815290600101906020018083116121db57829003601f168201915b50505050508152602001600d848154811061223c577f4e487b7100000000000000000000000000000000000000000000000000000000600052603260045260246000fd5b90600052602060002090600702016002018054612258906157b2565b80601f0160208091040260200160405190810160405280929190818152602001828054612284906157b2565b80156122d15780601f106122a6576101008083540402835291602001916122d1565b820191906000526020600020905b8154815290600101906020018083116122b457829003601f168201915b50505050508152602001600d8481548110612315577f4e487b7100000000000000000000000000000000000000000000000000000000600052603260045260246000fd5b9060005260206000209060070201600301548152602001600d8481548110612366577f4e487b7100000000000000000000000000000000000000000000000000000000600052603260045260246000fd5b9060005260206000209060070201600301548152602001600d84815481106123b7577f4e487b7100000000000000000000000000000000000000000000000000000000600052603260045260246000fd5b9060005260206000209060070201600501548152602001600d8481548110612408577f4e487b7100000000000000000000000000000000000000000000000000000000600052603260045260246000fd5b906000526020600020906007020160060154815250600e6000838152602001908152602001600020600082015181600001556020820151816001019080519060200190612456929190613aba565b506040820151816002019080519060200190612473929190613aba565b50606082015181600301556080820151816004015560a0820151816005015560c082015181600601559050506124c26040518060600160405280602e8152602001615a46602e913982846134a3565b80601460003373ffffffffffffffffffffffffffffffffffffffff1673ffffffffffffffffffffffffffffffffffffffff16815260200190815260200160002081905550612510600c6125f1565b7f4bc303fd457a97b4691b9af582ce71868a3d258638c8d4f8c60988a0f0bfb8cd33828460405161254393929190614ecf565b60405180910390a15050565b6125eb848484846040516024016125699493929190614fee565b6040516020818303038152906040527f8d142cdd000000000000000000000000000000000000000000000000000000007bffffffffffffffffffffffffffffffffffffffffffffffffffffffff19166020820180517bffffffffffffffffffffffffffffffffffffffffffffffffffffffff8381831617835250505050613542565b50505050565b6001816000016000828254019250508190555050565b60007f01ffc9a7000000000000000000000000000000000000000000000000000000007bffffffffffffffffffffffffffffffffffffffffffffffffffffffff1916827bffffffffffffffffffffffffffffffffffffffffffffffffffffffff1916149050919050565b60008073ffffffffffffffffffffffffffffffffffffffff166002600084815260200190815260200160002060009054906101000a900473ffffffffffffffffffffffffffffffffffffffff1673ffffffffffffffffffffffffffffffffffffffff1614159050919050565b600033905090565b816004600083815260200190815260200160002060006101000a81548173ffffffffffffffffffffffffffffffffffffffff021916908373ffffffffffffffffffffffffffffffffffffffff160217905550808273ffffffffffffffffffffffffffffffffffffffff1661275883610ae0565b73ffffffffffffffffffffffffffffffffffffffff167f8c5be1e5ebec7d5bd14f71427d1e84f3dd0314c0f7b2291e5b200ac8c7c3b92560405160405180910390a45050565b60006127a982612671565b6127e8576040517f08c379a00000000000000000000000000000000000000000000000000000000081526004016127df9061522a565b60405180910390fd5b60006127f383610ae0565b90508073ffffffffffffffffffffffffffffffffffffffff168473ffffffffffffffffffffffffffffffffffffffff16148061286257508373ffffffffffffffffffffffffffffffffffffffff1661284a84610890565b73ffffffffffffffffffffffffffffffffffffffff16145b8061287357506128728185611f74565b5b91505092915050565b8273ffffffffffffffffffffffffffffffffffffffff1661289c82610ae0565b73ffffffffffffffffffffffffffffffffffffffff16146128f2576040517f08c379a00000000000000000000000000000000000000000000000000000000081526004016128e99061536a565b60405180910390fd5b600073ffffffffffffffffffffffffffffffffffffffff168273ffffffffffffffffffffffffffffffffffffffff161415612962576040517f08c379a0000000000000000000000000000000000000000000000000000000008152600401612959906151ea565b60405180910390fd5b61296d83838361356b565b6129786000826126e5565b6001600360008573ffffffffffffffffffffffffffffffffffffffff1673ffffffffffffffffffffffffffffffffffffffff16815260200190815260200160002060008282546129c891906156be565b925050819055506001600360008473ffffffffffffffffffffffffffffffffffffffff1673ffffffffffffffffffffffffffffffffffffffff1681526020019081526020016000206000828254612a1f91906155dd565b92505081905550816002600083815260200190815260200160002060006101000a81548173ffffffffffffffffffffffffffffffffffffffff021916908373ffffffffffffffffffffffffffffffffffffffff160217905550808273ffffffffffffffffffffffffffffffffffffffff168473ffffffffffffffffffffffffffffffffffffffff167fddf252ad1be2c89b69c2b068fc378daa952ba7f163c4a11628f55a4df523b3ef60405160405180910390a4505050565b6000600760009054906101000a900473ffffffffffffffffffffffffffffffffffffffff16905081600760006101000a81548173ffffffffffffffffffffffffffffffffffffffff021916908373ffffffffffffffffffffffffffffffffffffffff1602179055508173ffffffffffffffffffffffffffffffffffffffff168173ffffffffffffffffffffffffffffffffffffffff167f8be0079c531659141344cd1fd0a4f28419497f9722a3daafe3b4186f6b6457e060405160405180910390a35050565b60006001606483612baf9190615841565b612bb991906155dd565b90506000600a600085815260200190815260200160002060009054906101000a900473ffffffffffffffffffffffffffffffffffffffff16905081600b60008373ffffffffffffffffffffffffffffffffffffffff1673ffffffffffffffffffffffffffffffffffffffff168152602001908152602001600020819055506000601460008373ffffffffffffffffffffffffffffffffffffffff1673ffffffffffffffffffffffffffffffffffffffff1681526020019081526020016000205490506000600e600083815260200190815260200160002090506000816005015490508160060154600b60008673ffffffffffffffffffffffffffffffffffffffff1673ffffffffffffffffffffffffffffffffffffffff168152602001908152602001600020541015612cf657600281612cf39190615664565b90505b80600f600201541015612d13576000600f60020181905550612d2e565b80600f60020154612d2491906156be565b600f600201819055505b612d556040518060600160405280602581526020016159e160259139600f60020154613570565b6000600f600201541115612dc857600f6004015482600301541015612d835760008260030181905550612da1565b600f600401548260030154612d9891906156be565b82600301819055505b612dc7604051806060016040528060278152602001615a74602791398360030154613570565b5b7f838ab28464562786a6c4ab2311964b82fa60bd9b14aa7e856af1f3f18d41a414600f600201548360030154604051612e029291906154c6565b60405180910390a150505050505050565b612e1e84848461287c565b612e2a8484848461360c565b612e69576040517f08c379a0000000000000000000000000000000000000000000000000000000008152600401612e609061516a565b60405180910390fd5b50505050565b60606000821415612eb7576040518060400160405280600181526020017f30000000000000000000000000000000000000000000000000000000000000008152509050613017565b600082905060005b60008214612ee9578080612ed2906157e4565b915050600a82612ee29190615633565b9150612ebf565b60008167ffffffffffffffff811115612f2b577f4e487b7100000000000000000000000000000000000000000000000000000000600052604160045260246000fd5b6040519080825280601f01601f191660200182016040528015612f5d5781602001600182028036833780820191505090505b5090505b6000851461301057600182612f7691906156be565b9150600a85612f859190615841565b6030612f9191906155dd565b60f81b818381518110612fcd577f4e487b7100000000000000000000000000000000000000000000000000000000600052603260045260246000fd5b60200101907effffffffffffffffffffffffffffffffffffffffffffffffffffffffffffff1916908160001a905350600a856130099190615633565b9450612f61565b8093505050505b919050565b6060600082519050600081141561304557604051806020016040528060008152509150506131d5565b6000600360028361305691906155dd565b6130609190615633565b600461306c9190615664565b9050600060208261307d91906155dd565b67ffffffffffffffff8111156130bc577f4e487b7100000000000000000000000000000000000000000000000000000000600052604160045260246000fd5b6040519080825280601f01601f1916602001820160405280156130ee5781602001600182028036833780820191505090505b5090506000604051806060016040528060408152602001615a06604091399050600181016020830160005b868110156131925760038101905062ffffff818a015116603f8160121c168401518060081b905060ff603f83600c1c1686015116810190508060081b905060ff603f8360061c1686015116810190508060081b905060ff603f831686015116810190508060e01b90508084526004840193505050613119565b5060038606600181146131ac57600281146131bc576131c7565b613d3d60f01b60028303526131c7565b603d60f81b60018303525b508484525050819450505050505b919050565b613276848484846040516024016131f49493929190615048565b6040516020818303038152906040527fd5cf17d0000000000000000000000000000000000000000000000000000000007bffffffffffffffffffffffffffffffffffffffffffffffffffffffff19166020820180517bffffffffffffffffffffffffffffffffffffffffffffffffffffffff8381831617835250505050613542565b50505050565b60007f000000000000000000000000000000000000000000000000000000000000000073ffffffffffffffffffffffffffffffffffffffff16634000aea07f0000000000000000000000000000000000000000000000000000000000000000848660006040516020016132f0929190614f5e565b6040516020818303038152906040526040518463ffffffff1660e01b815260040161331d93929190614e91565b602060405180830381600087803b15801561333757600080fd5b505af115801561334b573d6000803e3d6000fd5b505050506040513d601f19601f8201168201806040525081019061336f9190613e14565b5060006133928460003060066000898152602001908152602001600020546137a3565b9050600160066000868152602001908152602001600020546133b491906155dd565b60066000868152602001908152602001600020819055506133d584826137df565b91505092915050565b613474816040516024016133f29190614fcc565b6040516020818303038152906040527f41304fac000000000000000000000000000000000000000000000000000000007bffffffffffffffffffffffffffffffffffffffffffffffffffffffff19166020820180517bffffffffffffffffffffffffffffffffffffffffffffffffffffffff8381831617835250505050613542565b50565b600081600001549050919050565b61349f828260405180602001604052806000815250613812565b5050565b61353d8383836040516024016134bb9392919061512c565b6040516020818303038152906040527f969cdd03000000000000000000000000000000000000000000000000000000007bffffffffffffffffffffffffffffffffffffffffffffffffffffffff19166020820180517bffffffffffffffffffffffffffffffffffffffffffffffffffffffff8381831617835250505050613542565b505050565b60008151905060006a636f6e736f6c652e6c6f679050602083016000808483855afa5050505050565b505050565b61360882826040516024016135869291906150fc565b6040516020818303038152906040527f9710a9d0000000000000000000000000000000000000000000000000000000007bffffffffffffffffffffffffffffffffffffffffffffffffffffffff19166020820180517bffffffffffffffffffffffffffffffffffffffffffffffffffffffff8381831617835250505050613542565b5050565b600061362d8473ffffffffffffffffffffffffffffffffffffffff1661386d565b15613796578373ffffffffffffffffffffffffffffffffffffffff1663150b7a026136566126dd565b8786866040518563ffffffff1660e01b81526004016136789493929190614e45565b602060405180830381600087803b15801561369257600080fd5b505af19250505080156136c357506040513d601f19601f820116820180604052508101906136c09190613ecb565b60015b613746573d80600081146136f3576040519150601f19603f3d011682016040523d82523d6000602084013e6136f8565b606091505b5060008151141561373e576040517f08c379a00000000000000000000000000000000000000000000000000000000081526004016137359061516a565b60405180910390fd5b805181602001fd5b63150b7a0260e01b7bffffffffffffffffffffffffffffffffffffffffffffffffffffffff1916817bffffffffffffffffffffffffffffffffffffffffffffffffffffffff19161491505061379b565b600190505b949350505050565b6000848484846040516020016137bc9493929190614f87565b6040516020818303038152906040528051906020012060001c9050949350505050565b600082826040516020016137f4929190614d1f565b60405160208183030381529060405280519060200120905092915050565b61381c8383613880565b613829600084848461360c565b613868576040517f08c379a000000000000000000000000000000000000000000000000000000000815260040161385f9061516a565b60405180910390fd5b505050565b600080823b905060008111915050919050565b600073ffffffffffffffffffffffffffffffffffffffff168273ffffffffffffffffffffffffffffffffffffffff1614156138f0576040517f08c379a00000000000000000000000000000000000000000000000000000000081526004016138e79061530a565b60405180910390fd5b6138f981612671565b15613939576040517f08c379a0000000000000000000000000000000000000000000000000000000008152600401613930906151ca565b60405180910390fd5b6139456000838361356b565b6001600360008473ffffffffffffffffffffffffffffffffffffffff1673ffffffffffffffffffffffffffffffffffffffff168152602001908152602001600020600082825461399591906155dd565b92505081905550816002600083815260200190815260200160002060006101000a81548173ffffffffffffffffffffffffffffffffffffffff021916908373ffffffffffffffffffffffffffffffffffffffff160217905550808273ffffffffffffffffffffffffffffffffffffffff16600073ffffffffffffffffffffffffffffffffffffffff167fddf252ad1be2c89b69c2b068fc378daa952ba7f163c4a11628f55a4df523b3ef60405160405180910390a45050565b6040518060a0016040528060608152602001606081526020016000815260200160008152602001600081525090565b6040518060e00160405280600081526020016060815260200160608152602001600081526020016000815260200160008152602001600081525090565b828054613ac6906157b2565b90600052602060002090601f016020900481019282613ae85760008555613b2f565b82601f10613b0157805160ff1916838001178555613b2f565b82800160010185558215613b2f579182015b82811115613b2e578251825591602001919060010190613b13565b5b509050613b3c9190613b40565b5090565b5b80821115613b59576000816000905550600101613b41565b5090565b6000613b70613b6b84615520565b6154ef565b905082815260208101848484011115613b8857600080fd5b613b93848285615770565b509392505050565b600081359050613baa8161593f565b92915050565b600081359050613bbf81615956565b92915050565b600081519050613bd481615956565b92915050565b600081359050613be98161596d565b92915050565b600081359050613bfe81615984565b92915050565b600081519050613c1381615984565b92915050565b600082601f830112613c2a57600080fd5b8135613c3a848260208601613b5d565b91505092915050565b600081359050613c528161599b565b92915050565b600081519050613c678161599b565b92915050565b600060208284031215613c7f57600080fd5b6000613c8d84828501613b9b565b91505092915050565b60008060408385031215613ca957600080fd5b6000613cb785828601613b9b565b9250506020613cc885828601613b9b565b9150509250929050565b600080600060608486031215613ce757600080fd5b6000613cf586828701613b9b565b9350506020613d0686828701613b9b565b9250506040613d1786828701613c43565b9150509250925092565b60008060008060808587031215613d3757600080fd5b6000613d4587828801613b9b565b9450506020613d5687828801613b9b565b9350506040613d6787828801613c43565b925050606085013567ffffffffffffffff811115613d8457600080fd5b613d9087828801613c19565b91505092959194509250565b60008060408385031215613daf57600080fd5b6000613dbd85828601613b9b565b9250506020613dce85828601613bb0565b9150509250929050565b60008060408385031215613deb57600080fd5b6000613df985828601613b9b565b9250506020613e0a85828601613c43565b9150509250929050565b600060208284031215613e2657600080fd5b6000613e3484828501613bc5565b91505092915050565b600060208284031215613e4f57600080fd5b6000613e5d84828501613bda565b91505092915050565b60008060408385031215613e7957600080fd5b6000613e8785828601613bda565b9250506020613e9885828601613c43565b9150509250929050565b600060208284031215613eb457600080fd5b6000613ec284828501613bef565b91505092915050565b600060208284031215613edd57600080fd5b6000613eeb84828501613c04565b91505092915050565b600060208284031215613f0657600080fd5b6000613f1484828501613c43565b91505092915050565b600060208284031215613f2f57600080fd5b6000613f3d84828501613c58565b91505092915050565b6000613f528383614ba4565b905092915050565b613f63816156f2565b82525050565b6000613f7482615560565b613f7e818561558e565b935083602082028501613f9085615550565b8060005b85811015613fcc5784840389528151613fad8582613f46565b9450613fb883615581565b925060208a01995050600181019050613f94565b50829750879550505050505092915050565b613fe781615704565b82525050565b613ff681615710565b82525050565b61400d61400882615710565b61582d565b82525050565b600061401e8261556b565b614028818561559f565b935061403881856020860161577f565b6140418161592e565b840191505092915050565b600061405782615576565b61406181856155b0565b935061407181856020860161577f565b61407a8161592e565b840191505092915050565b600061409082615576565b61409a81856155c1565b93506140aa81856020860161577f565b6140b38161592e565b840191505092915050565b60006140c982615576565b6140d381856155d2565b93506140e381856020860161577f565b80840191505092915050565b60006140fc600b836155d2565b91507f202d2d204e465420233a200000000000000000000000000000000000000000006000830152600b82019050919050565b600061413c6032836155c1565b91507f4552433732313a207472616e7366657220746f206e6f6e20455243373231526560008301527f63656976657220696d706c656d656e74657200000000000000000000000000006020830152604082019050919050565b60006141a26026836155c1565b91507f4f776e61626c653a206e6577206f776e657220697320746865207a65726f206160008301527f64647265737300000000000000000000000000000000000000000000000000006020830152604082019050919050565b60006142086028836155c1565b91507f4572726f723a20626f7373206d757374206861766520485020746f206174746160008301527f636b20626f73732e0000000000000000000000000000000000000000000000006020830152604082019050919050565b600061426e601c836155c1565b91507f4552433732313a20746f6b656e20616c7265616479206d696e746564000000006000830152602082019050919050565b60006142ae600e836155d2565b91507f2c20226d61785f76616c7565223a0000000000000000000000000000000000006000830152600e82019050919050565b60006142ee6024836155c1565b91507f4552433732313a207472616e7366657220746f20746865207a65726f2061646460008301527f72657373000000000000000000000000000000000000000000000000000000006020830152604082019050919050565b60006143546019836155c1565b91507f4552433732313a20617070726f766520746f2063616c6c6572000000000000006000830152602082019050919050565b6000614394604a836155d2565b91507f7d2c207b22646973706c61795f74797065223a2022626f6f73745f6e756d626560008301527f72222c202274726169745f74797065223a202243726974204368616e6365222c60208301527f202276616c7565223a20000000000000000000000000000000000000000000006040830152604a82019050919050565b6000614420602c836155c1565b91507f4552433732313a206f70657261746f7220717565727920666f72206e6f6e657860008301527f697374656e7420746f6b656e00000000000000000000000000000000000000006020830152604082019050919050565b60006144866038836155c1565b91507f4552433732313a20617070726f76652063616c6c6572206973206e6f74206f7760008301527f6e6572206e6f7220617070726f76656420666f7220616c6c00000000000000006020830152604082019050919050565b60006144ec602a836155c1565b91507f4552433732313a2062616c616e636520717565727920666f7220746865207a6560008301527f726f2061646472657373000000000000000000000000000000000000000000006020830152604082019050919050565b60006145526029836155c1565b91507f4552433732313a206f776e657220717565727920666f72206e6f6e657869737460008301527f656e7420746f6b656e00000000000000000000000000000000000000000000006020830152604082019050919050565b60006145b8601c836155c1565b91507f50726576696f75732061747461636b20696e2070726f67726573732e000000006000830152602082019050919050565b60006145f8601d836155c1565b91507f4f7574206f66204c494e4b2c20726566696c6c20636f6e74726163742e0000006000830152602082019050919050565b6000614638602d836155c1565b91507f4572726f723a20636861726163746572206d757374206861766520485020746f60008301527f2061747461636b20626f73732e000000000000000000000000000000000000006020830152604082019050919050565b600061469e6004836155d2565b91507f7d205d7d000000000000000000000000000000000000000000000000000000006000830152600482019050919050565b60006146de6020836155c1565b91507f4552433732313a206d696e7420746f20746865207a65726f20616464726573736000830152602082019050919050565b600061471e602c836155c1565b91507f4552433732313a20617070726f76656420717565727920666f72206e6f6e657860008301527f697374656e7420746f6b656e00000000000000000000000000000000000000006020830152604082019050919050565b60006147846020836155c1565b91507f4f776e61626c653a2063616c6c6572206973206e6f7420746865206f776e65726000830152602082019050919050565b60006147c46029836155c1565b91507f4552433732313a207472616e73666572206f6620746f6b656e2074686174206960008301527f73206e6f74206f776e00000000000000000000000000000000000000000000006020830152604082019050919050565b600061482a600a836155d2565b91507f7b226e616d65223a2022000000000000000000000000000000000000000000006000830152600a82019050919050565b600061486a601f836155c1565b91507f4f6e6c7920565246436f6f7264696e61746f722063616e2066756c66696c6c006000830152602082019050919050565b60006148aa6021836155c1565b91507f4552433732313a20617070726f76616c20746f2063757272656e74206f776e6560008301527f72000000000000000000000000000000000000000000000000000000000000006020830152604082019050919050565b6000614910601d836155d2565b91507f646174613a6170706c69636174696f6e2f6a736f6e3b6261736536342c0000006000830152601d82019050919050565b60006149506069836155d2565b91507f222c20226465736372697074696f6e223a20225468697320697320616e204e4660008301527f542074686174206c6574732070656f706c6520706c617920696e20746865206760208301527f616d65204d657461766572736520536c6179657221222c2022696d616765223a60408301527f2022697066733a2f2f00000000000000000000000000000000000000000000006060830152606982019050919050565b6000614a026031836155c1565b91507f4552433732313a207472616e736665722063616c6c6572206973206e6f74206f60008301527f776e6572206e6f7220617070726f7665640000000000000000000000000000006020830152604082019050919050565b6000614a68603d836155d2565b91507f222c202261747472696275746573223a205b207b202274726169745f7479706560008301527f223a20224865616c746820506f696e7473222c202276616c7565223a200000006020830152603d82019050919050565b6000614ace602d836155d2565b91507f7d2c207b202274726169745f74797065223a202241747461636b2044616d616760008301527f65222c202276616c7565223a20000000000000000000000000000000000000006020830152602d82019050919050565b600060a0830160008301518482036000860152614b44828261404c565b91505060208301518482036020860152614b5e828261404c565b9150506040830151614b736040860182614cea565b506060830151614b866060860182614cea565b506080830151614b996080860182614cea565b508091505092915050565b600060e083016000830151614bbc6000860182614cea565b5060208301518482036020860152614bd4828261404c565b91505060408301518482036040860152614bee828261404c565b9150506060830151614c036060860182614cea565b506080830151614c166080860182614cea565b5060a0830151614c2960a0860182614cea565b5060c0830151614c3c60c0860182614cea565b508091505092915050565b600060e083016000830151614c5f6000860182614cea565b5060208301518482036020860152614c77828261404c565b91505060408301518482036040860152614c91828261404c565b9150506060830151614ca66060860182614cea565b506080830151614cb96080860182614cea565b5060a0830151614ccc60a0860182614cea565b5060c0830151614cdf60c0860182614cea565b508091505092915050565b614cf381615766565b82525050565b614d0281615766565b82525050565b614d19614d1482615766565b615837565b82525050565b6000614d2b8285613ffc565b602082019150614d3b8284614d08565b6020820191508190509392505050565b6000614d568261481d565b9150614d62828a6140be565b9150614d6d826140ef565b9150614d7982896140be565b9150614d8482614943565b9150614d9082886140be565b9150614d9b82614a5b565b9150614da782876140be565b9150614db2826142a1565b9150614dbe82866140be565b9150614dc982614ac1565b9150614dd582856140be565b9150614de082614387565b9150614dec82846140be565b9150614df782614691565b915081905098975050505050505050565b6000614e1382614903565b9150614e1f82846140be565b915081905092915050565b6000602082019050614e3f6000830184613f5a565b92915050565b6000608082019050614e5a6000830187613f5a565b614e676020830186613f5a565b614e746040830185614cf9565b8181036060830152614e868184614013565b905095945050505050565b6000606082019050614ea66000830186613f5a565b614eb36020830185614cf9565b8181036040830152614ec58184614013565b9050949350505050565b6000606082019050614ee46000830186613f5a565b614ef16020830185614cf9565b614efe6040830184614cf9565b949350505050565b60006020820190508181036000830152614f208184613f69565b905092915050565b6000602082019050614f3d6000830184613fde565b92915050565b6000602082019050614f586000830184613fed565b92915050565b6000604082019050614f736000830185613fed565b614f806020830184614cf9565b9392505050565b6000608082019050614f9c6000830187613fed565b614fa96020830186614cf9565b614fb66040830185613f5a565b614fc36060830184614cf9565b95945050505050565b60006020820190508181036000830152614fe68184614085565b905092915050565b600060808201905081810360008301526150088187614085565b9050818103602083015261501c8186614085565b905061502b6040830185614cf9565b818103606083015261503d8184614085565b905095945050505050565b600060808201905081810360008301526150628187614085565b905081810360208301526150768186614085565b90506150856040830185614cf9565b6150926060830184614cf9565b95945050505050565b600060a08201905081810360008301526150b58188614085565b905081810360208301526150c98187614085565b90506150d86040830186614cf9565b6150e56060830185614cf9565b6150f26080830184614cf9565b9695505050505050565b600060408201905081810360008301526151168185614085565b90506151256020830184614cf9565b9392505050565b600060608201905081810360008301526151468186614085565b90506151556020830185614cf9565b6151626040830184614cf9565b949350505050565b600060208201905081810360008301526151838161412f565b9050919050565b600060208201905081810360008301526151a381614195565b9050919050565b600060208201905081810360008301526151c3816141fb565b9050919050565b600060208201905081810360008301526151e381614261565b9050919050565b60006020820190508181036000830152615203816142e1565b9050919050565b6000602082019050818103600083015261522381614347565b9050919050565b6000602082019050818103600083015261524381614413565b9050919050565b6000602082019050818103600083015261526381614479565b9050919050565b60006020820190508181036000830152615283816144df565b9050919050565b600060208201905081810360008301526152a381614545565b9050919050565b600060208201905081810360008301526152c3816145ab565b9050919050565b600060208201905081810360008301526152e3816145eb565b9050919050565b600060208201905081810360008301526153038161462b565b9050919050565b60006020820190508181036000830152615323816146d1565b9050919050565b6000602082019050818103600083015261534381614711565b9050919050565b6000602082019050818103600083015261536381614777565b9050919050565b60006020820190508181036000830152615383816147b7565b9050919050565b600060208201905081810360008301526153a38161485d565b9050919050565b600060208201905081810360008301526153c38161489d565b9050919050565b600060208201905081810360008301526153e3816149f5565b9050919050565b600060208201905081810360008301526154048184614b27565b905092915050565b600060208201905081810360008301526154268184614c47565b905092915050565b60006020820190506154436000830184614cf9565b92915050565b600060e08201905061545e600083018a614cf9565b81810360208301526154708189614085565b905081810360408301526154848188614085565b90506154936060830187614cf9565b6154a06080830186614cf9565b6154ad60a0830185614cf9565b6154ba60c0830184614cf9565b98975050505050505050565b60006040820190506154db6000830185614cf9565b6154e86020830184614cf9565b9392505050565b6000604051905081810181811067ffffffffffffffff82111715615516576155156158ff565b5b8060405250919050565b600067ffffffffffffffff82111561553b5761553a6158ff565b5b601f19601f8301169050602081019050919050565b6000819050602082019050919050565b600081519050919050565b600081519050919050565b600081519050919050565b6000602082019050919050565b600082825260208201905092915050565b600082825260208201905092915050565b600082825260208201905092915050565b600082825260208201905092915050565b600081905092915050565b60006155e882615766565b91506155f383615766565b9250827fffffffffffffffffffffffffffffffffffffffffffffffffffffffffffffffff0382111561562857615627615872565b5b828201905092915050565b600061563e82615766565b915061564983615766565b925082615659576156586158a1565b5b828204905092915050565b600061566f82615766565b915061567a83615766565b9250817fffffffffffffffffffffffffffffffffffffffffffffffffffffffffffffffff04831182151516156156b3576156b2615872565b5b828202905092915050565b60006156c982615766565b91506156d483615766565b9250828210156156e7576156e6615872565b5b828203905092915050565b60006156fd82615746565b9050919050565b60008115159050919050565b6000819050919050565b60007fffffffff0000000000000000000000000000000000000000000000000000000082169050919050565b600073ffffffffffffffffffffffffffffffffffffffff82169050919050565b6000819050919050565b82818337600083830152505050565b60005b8381101561579d578082015181840152602081019050615782565b838111156157ac576000848401525b50505050565b600060028204905060018216806157ca57607f821691505b602082108114156157de576157dd6158d0565b5b50919050565b60006157ef82615766565b91507fffffffffffffffffffffffffffffffffffffffffffffffffffffffffffffffff82141561582257615821615872565b5b600182019050919050565b6000819050919050565b6000819050919050565b600061584c82615766565b915061585783615766565b925082615867576158666158a1565b5b828206905092915050565b7f4e487b7100000000000000000000000000000000000000000000000000000000600052601160045260246000fd5b7f4e487b7100000000000000000000000000000000000000000000000000000000600052601260045260246000fd5b7f4e487b7100000000000000000000000000000000000000000000000000000000600052602260045260246000fd5b7f4e487b7100000000000000000000000000000000000000000000000000000000600052604160045260246000fd5b6000601f19601f8301169050919050565b615948816156f2565b811461595357600080fd5b50565b61595f81615704565b811461596a57600080fd5b50565b61597681615710565b811461598157600080fd5b50565b61598d8161571a565b811461599857600080fd5b50565b6159a481615766565b81146159af57600080fd5b5056fe506c617965722061747461636b696e6720626f7373202d2d2072657175657374696e672072616e646f6d6e657373506c617965722061747461636b656420626f73732e204e657720626f73732068703a2025734142434445464748494a4b4c4d4e4f505152535455565758595a6162636465666768696a6b6c6d6e6f707172737475767778797a303132333435363738392b2f4d696e746564204e465420772f20746f6b656e496420257320616e6420636861726163746572496e646578202573426f73732061747461636b656420706c617965722e204e657720706c617965722068703a2025730a506c6179657220772f206368617261637465722025732061626f757420746f2061747461636b2e2048617320257320485020616e64202573204144a2646970667358221220d6568532628e424cb3b700abb3aa6cfe5bcfb2d5ff96bc8ed8be4e5a74e9f67164736f6c63430008000033446f6e6520696e697469616c697a696e6720257320772f2048502025732c20696d67202573446f6e6520696e697469616c697a696e6720626f737320257320772f2048502025732c20696d67202573",
  "linkReferences": {},
  "deployedLinkReferences": {}
}